{
  "contractName": "StoreCustomers",
  "abi": [
    {
      "inputs": [],
      "name": "count",
      "outputs": [
        {
          "internalType": "uint32",
          "name": "",
          "type": "uint32"
        }
      ],
      "stateMutability": "view",
      "type": "function",
      "constant": true
    },
    {
      "inputs": [
        {
          "internalType": "uint32",
          "name": "",
          "type": "uint32"
        }
      ],
      "name": "customers",
      "outputs": [
        {
          "internalType": "string",
          "name": "name",
          "type": "string"
        },
        {
          "internalType": "string",
          "name": "email",
          "type": "string"
        },
        {
          "internalType": "string",
          "name": "phone",
          "type": "string"
        },
        {
          "internalType": "uint256",
          "name": "age",
          "type": "uint256"
        }
      ],
      "stateMutability": "view",
      "type": "function",
      "constant": true
    },
    {
      "inputs": [
        {
          "components": [
            {
              "internalType": "string",
              "name": "name",
              "type": "string"
            },
            {
              "internalType": "string",
              "name": "email",
              "type": "string"
            },
            {
              "internalType": "string",
              "name": "phone",
              "type": "string"
            },
            {
              "internalType": "uint256",
              "name": "age",
              "type": "uint256"
            }
          ],
          "internalType": "struct StoreCustomers.Customer",
          "name": "newCustomer",
          "type": "tuple"
        }
      ],
      "name": "addCustomer",
      "outputs": [],
      "stateMutability": "nonpayable",
      "type": "function"
    },
    {
      "inputs": [
        {
          "internalType": "uint32",
          "name": "id",
          "type": "uint32"
        }
      ],
      "name": "getCustomer",
      "outputs": [
        {
          "components": [
            {
              "internalType": "string",
              "name": "name",
              "type": "string"
            },
            {
              "internalType": "string",
              "name": "email",
              "type": "string"
            },
            {
              "internalType": "string",
              "name": "phone",
              "type": "string"
            },
            {
              "internalType": "uint256",
              "name": "age",
              "type": "uint256"
            }
          ],
          "internalType": "struct StoreCustomers.Customer",
          "name": "",
          "type": "tuple"
        }
      ],
      "stateMutability": "view",
      "type": "function",
      "constant": true
    },
    {
      "inputs": [],
      "name": "getAllCustomers",
      "outputs": [
        {
          "components": [
            {
              "internalType": "string",
              "name": "name",
              "type": "string"
            },
            {
              "internalType": "string",
              "name": "email",
              "type": "string"
            },
            {
              "internalType": "string",
              "name": "phone",
              "type": "string"
            },
            {
              "internalType": "uint256",
              "name": "age",
              "type": "uint256"
            }
          ],
          "internalType": "struct StoreCustomers.Customer[]",
          "name": "",
          "type": "tuple[]"
        }
      ],
      "stateMutability": "view",
      "type": "function",
      "constant": true
    },
    {
      "inputs": [
        {
          "internalType": "uint32",
          "name": "id",
          "type": "uint32"
        },
        {
          "components": [
            {
              "internalType": "string",
              "name": "name",
              "type": "string"
            },
            {
              "internalType": "string",
              "name": "email",
              "type": "string"
            },
            {
              "internalType": "string",
              "name": "phone",
              "type": "string"
            },
            {
              "internalType": "uint256",
              "name": "age",
              "type": "uint256"
            }
          ],
          "internalType": "struct StoreCustomers.Customer",
          "name": "customer",
          "type": "tuple"
        }
      ],
      "name": "updateCustomer",
      "outputs": [],
      "stateMutability": "nonpayable",
      "type": "function"
    },
    {
      "inputs": [
        {
          "internalType": "uint32",
          "name": "id",
          "type": "uint32"
        }
      ],
      "name": "deleteCustomer",
      "outputs": [],
      "stateMutability": "nonpayable",
      "type": "function"
    }
  ],
  "bytecode": "0x6080604052600080546001600160401b031916905534801561002057600080fd5b50610f7e806100306000396000f3fe608060405234801561001057600080fd5b506004361061007d5760003560e01c806385ec526d1161005b57806385ec526d146100de5780638d191d28146100fe578063b39ed84314610111578063d39e50e11461012457600080fd5b806306661abd14610082578063506ce97d146100b45780637da67ba8146100c9575b600080fd5b60005461009a90640100000000900463ffffffff1681565b60405163ffffffff90911681526020015b60405180910390f35b6100c76100c2366004610b60565b610147565b005b6100d16101a9565b6040516100ab9190610c53565b6100f16100ec366004610cb5565b61047b565b6040516100ab9190610cd7565b6100c761010c366004610cea565b61068c565b6100c761011f366004610cb5565b610735565b610137610132366004610cb5565b610799565b6040516100ab9493929190610d27565b63ffffffff821660009081526001602052604090208151829190819061016d9082610df5565b50602082015160018201906101829082610df5565b50604082015160028201906101979082610df5565b50606082015181600301559050505050565b6000805460609190640100000000900463ffffffff1667ffffffffffffffff8111156101d7576101d7610a04565b60405190808252806020026020018201604052801561023357816020015b6102206040518060800160405280606081526020016060815260200160608152602001600081525090565b8152602001906001900390816101f55790505b50905060015b60005463ffffffff6401000000009091048116908216116104755763ffffffff81166000908152600160205260409081902081516080810190925280548290829061028390610d72565b80601f01602080910402602001604051908101604052809291908181526020018280546102af90610d72565b80156102fc5780601f106102d1576101008083540402835291602001916102fc565b820191906000526020600020905b8154815290600101906020018083116102df57829003601f168201915b5050505050815260200160018201805461031590610d72565b80601f016020809104026020016040519081016040528092919081815260200182805461034190610d72565b801561038e5780601f106103635761010080835404028352916020019161038e565b820191906000526020600020905b81548152906001019060200180831161037157829003601f168201915b505050505081526020016002820180546103a790610d72565b80601f01602080910402602001604051908101604052809291908181526020018280546103d390610d72565b80156104205780601f106103f557610100808354040283529160200191610420565b820191906000526020600020905b81548152906001019060200180831161040357829003601f168201915b50505050508152602001600382015481525050826001836104419190610ecb565b63ffffffff168151811061045757610457610eef565b6020026020010181905250808061046d90610f05565b915050610239565b50919050565b6104a66040518060800160405280606081526020016060815260200160608152602001600081525090565b63ffffffff8216600090815260016020526040908190208151608081019092528054829082906104d590610d72565b80601f016020809104026020016040519081016040528092919081815260200182805461050190610d72565b801561054e5780601f106105235761010080835404028352916020019161054e565b820191906000526020600020905b81548152906001019060200180831161053157829003601f168201915b5050505050815260200160018201805461056790610d72565b80601f016020809104026020016040519081016040528092919081815260200182805461059390610d72565b80156105e05780601f106105b5576101008083540402835291602001916105e0565b820191906000526020600020905b8154815290600101906020018083116105c357829003601f168201915b505050505081526020016002820180546105f990610d72565b80601f016020809104026020016040519081016040528092919081815260200182805461062590610d72565b80156106725780601f1061064757610100808354040283529160200191610672565b820191906000526020600020905b81548152906001019060200180831161065557829003601f168201915b505050505081526020016003820154815250509050919050565b8060016000610699610959565b63ffffffff1681526020810191909152604001600020815181906106bd9082610df5565b50602082015160018201906106d29082610df5565b50604082015160028201906106e79082610df5565b506060919091015160039091015560008054640100000000900463ffffffff1690600461071383610f05565b91906101000a81548163ffffffff021916908363ffffffff1602179055505050565b63ffffffff81166000908152600160205260408120906107558282610995565b610763600183016000610995565b610771600283016000610995565b5060006003919091018190558054640100000000900463ffffffff1690600461071383610f28565b6001602052600090815260409020805481906107b490610d72565b80601f01602080910402602001604051908101604052809291908181526020018280546107e090610d72565b801561082d5780601f106108025761010080835404028352916020019161082d565b820191906000526020600020905b81548152906001019060200180831161081057829003601f168201915b50505050509080600101805461084290610d72565b80601f016020809104026020016040519081016040528092919081815260200182805461086e90610d72565b80156108bb5780601f10610890576101008083540402835291602001916108bb565b820191906000526020600020905b81548152906001019060200180831161089e57829003601f168201915b5050505050908060020180546108d090610d72565b80601f01602080910402602001604051908101604052809291908181526020018280546108fc90610d72565b80156109495780601f1061091e57610100808354040283529160200191610949565b820191906000526020600020905b81548152906001019060200180831161092c57829003601f168201915b5050505050908060030154905084565b6000805463ffffffff16818061096e83610f05565b82546101009290920a63ffffffff8181021990931691831602179091556000541692915050565b5080546109a190610d72565b6000825580601f106109b1575050565b601f0160209004906000526020600020908101906109cf91906109d2565b50565b5b808211156109e757600081556001016109d3565b5090565b803563ffffffff811681146109ff57600080fd5b919050565b634e487b7160e01b600052604160045260246000fd5b600082601f830112610a2b57600080fd5b813567ffffffffffffffff80821115610a4657610a46610a04565b604051601f8301601f19908116603f01168101908282118183101715610a6e57610a6e610a04565b81604052838152866020858801011115610a8757600080fd5b836020870160208301376000602085830101528094505050505092915050565b600060808284031215610ab957600080fd5b6040516080810167ffffffffffffffff8282108183111715610add57610add610a04565b816040528293508435915080821115610af557600080fd5b610b0186838701610a1a565b83526020850135915080821115610b1757600080fd5b610b2386838701610a1a565b60208401526040850135915080821115610b3c57600080fd5b50610b4985828601610a1a565b604083015250606083013560608201525092915050565b60008060408385031215610b7357600080fd5b610b7c836109eb565b9150602083013567ffffffffffffffff811115610b9857600080fd5b610ba485828601610aa7565b9150509250929050565b6000815180845260005b81811015610bd457602081850181015186830182015201610bb8565b506000602082860101526020601f19601f83011685010191505092915050565b6000815160808452610c096080850182610bae565b905060208301518482036020860152610c228282610bae565b91505060408301518482036040860152610c3c8282610bae565b915050606083015160608501528091505092915050565b6000602080830181845280855180835260408601915060408160051b870101925083870160005b82811015610ca857603f19888603018452610c96858351610bf4565b94509285019290850190600101610c7a565b5092979650505050505050565b600060208284031215610cc757600080fd5b610cd0826109eb565b9392505050565b602081526000610cd06020830184610bf4565b600060208284031215610cfc57600080fd5b813567ffffffffffffffff811115610d1357600080fd5b610d1f84828501610aa7565b949350505050565b608081526000610d3a6080830187610bae565b8281036020840152610d4c8187610bae565b90508281036040840152610d608186610bae565b91505082606083015295945050505050565b600181811c90821680610d8657607f821691505b60208210810361047557634e487b7160e01b600052602260045260246000fd5b601f821115610df057600081815260208120601f850160051c81016020861015610dcd5750805b601f850160051c820191505b81811015610dec57828155600101610dd9565b5050505b505050565b815167ffffffffffffffff811115610e0f57610e0f610a04565b610e2381610e1d8454610d72565b84610da6565b602080601f831160018114610e585760008415610e405750858301515b600019600386901b1c1916600185901b178555610dec565b600085815260208120601f198616915b82811015610e8757888601518255948401946001909101908401610e68565b5085821015610ea55787850151600019600388901b60f8161c191681555b5050505050600190811b01905550565b634e487b7160e01b600052601160045260246000fd5b63ffffffff828116828216039080821115610ee857610ee8610eb5565b5092915050565b634e487b7160e01b600052603260045260246000fd5b600063ffffffff808316818103610f1e57610f1e610eb5565b6001019392505050565b600063ffffffff821680610f3e57610f3e610eb5565b600019019291505056fea2646970667358221220feb4321653d5a15d4752b1503cea5a50cd2f835848ee7bfa4efea9d96d78056c64736f6c63430008130033",
  "immutableReferences": {},
  "source": "// SPDX-License-Identifier: MIT\r\npragma solidity 0.8.19;\r\n\r\ncontract StoreCustomers {\r\n\r\n    struct Customer {\r\n        string name;\r\n        string email;\r\n        string phone;\r\n        uint age;\r\n    }\r\n\r\n    uint32 private nextId = 0;\r\n    uint32 public count = 0;\r\n\r\n    function getNextId() private returns (uint32) {\r\n        nextId++;\r\n        return nextId;\r\n    }\r\n\r\n    mapping(uint32 => Customer) public customers;\r\n\r\n    function addCustomer(Customer memory newCustomer) public {\r\n        customers[getNextId()] = newCustomer;\r\n        count++;\r\n    }\r\n\r\n    function getCustomer(uint32 id) public view returns (Customer memory) {\r\n        return customers[id];\r\n    }\r\n\r\n    function getAllCustomers() public view returns (Customer[] memory) {\r\n        Customer[] memory result = new Customer[](count);\r\n        for (uint32 i = 1; i <= count; i++) {\r\n            result[i - 1] = customers[i];\r\n        }\r\n        return result;\r\n    }\r\n\r\n    function updateCustomer(uint32 id, Customer memory customer) public {\r\n        customers[id] = customer;\r\n    }\r\n\r\n    function deleteCustomer(uint32 id) public {\r\n        delete customers[id];\r\n        count--;\r\n    }\r\n\r\n}",
  "sourcePath": "C:\\github\\gabyhud\\trabalho-final\\tuffle-crud\\contracts\\StoreCustomers.sol",
  "compiler": {
    "name": "solc",
    "version": "0.8.19+commit.7dd6d404.Emscripten.clang"
  },
  "schemaVersion": "3.4.14",
  "updatedAt": "2023-05-27T22:47:02.133Z",
  "networkType": "ethereum",
  "devdoc": {
    "kind": "dev",
    "methods": {},
    "version": 1
  },
  "userdoc": {
    "kind": "user",
    "methods": {},
    "version": 1
  }
}