{
  "contractName": "StoreCustomers",
  "abi": [
    {
      "inputs": [
        {
          "internalType": "uint32",
          "name": "",
          "type": "uint32"
        }
      ],
      "name": "customers",
      "outputs": [
        {
          "internalType": "uint256",
          "name": "id",
          "type": "uint256"
        },
        {
          "internalType": "string",
          "name": "name",
          "type": "string"
        },
        {
          "internalType": "string",
          "name": "email",
          "type": "string"
        },
        {
          "internalType": "string",
          "name": "phone",
          "type": "string"
        },
        {
          "internalType": "uint256",
          "name": "age",
          "type": "uint256"
        }
      ],
      "stateMutability": "view",
      "type": "function",
      "constant": true
    },
    {
      "inputs": [],
      "name": "finalCount",
      "outputs": [
        {
          "internalType": "uint32",
          "name": "",
          "type": "uint32"
        }
      ],
      "stateMutability": "view",
      "type": "function",
      "constant": true
    },
    {
      "inputs": [
        {
          "components": [
            {
              "internalType": "uint256",
              "name": "id",
              "type": "uint256"
            },
            {
              "internalType": "string",
              "name": "name",
              "type": "string"
            },
            {
              "internalType": "string",
              "name": "email",
              "type": "string"
            },
            {
              "internalType": "string",
              "name": "phone",
              "type": "string"
            },
            {
              "internalType": "uint256",
              "name": "age",
              "type": "uint256"
            }
          ],
          "internalType": "struct StoreCustomers.Customer",
          "name": "newCustomer",
          "type": "tuple"
        }
      ],
      "name": "addCustomer",
      "outputs": [],
      "stateMutability": "nonpayable",
      "type": "function"
    },
    {
      "inputs": [
        {
          "internalType": "uint32",
          "name": "_id",
          "type": "uint32"
        }
      ],
      "name": "getCustomer",
      "outputs": [
        {
          "components": [
            {
              "internalType": "uint256",
              "name": "id",
              "type": "uint256"
            },
            {
              "internalType": "string",
              "name": "name",
              "type": "string"
            },
            {
              "internalType": "string",
              "name": "email",
              "type": "string"
            },
            {
              "internalType": "string",
              "name": "phone",
              "type": "string"
            },
            {
              "internalType": "uint256",
              "name": "age",
              "type": "uint256"
            }
          ],
          "internalType": "struct StoreCustomers.Customer",
          "name": "",
          "type": "tuple"
        }
      ],
      "stateMutability": "view",
      "type": "function",
      "constant": true
    },
    {
      "inputs": [],
      "name": "getAllCustomers",
      "outputs": [
        {
          "components": [
            {
              "internalType": "uint256",
              "name": "id",
              "type": "uint256"
            },
            {
              "internalType": "string",
              "name": "name",
              "type": "string"
            },
            {
              "internalType": "string",
              "name": "email",
              "type": "string"
            },
            {
              "internalType": "string",
              "name": "phone",
              "type": "string"
            },
            {
              "internalType": "uint256",
              "name": "age",
              "type": "uint256"
            }
          ],
          "internalType": "struct StoreCustomers.Customer[]",
          "name": "",
          "type": "tuple[]"
        }
      ],
      "stateMutability": "view",
      "type": "function",
      "constant": true
    },
    {
      "inputs": [
        {
          "internalType": "uint32",
          "name": "_id",
          "type": "uint32"
        },
        {
          "components": [
            {
              "internalType": "uint256",
              "name": "id",
              "type": "uint256"
            },
            {
              "internalType": "string",
              "name": "name",
              "type": "string"
            },
            {
              "internalType": "string",
              "name": "email",
              "type": "string"
            },
            {
              "internalType": "string",
              "name": "phone",
              "type": "string"
            },
            {
              "internalType": "uint256",
              "name": "age",
              "type": "uint256"
            }
          ],
          "internalType": "struct StoreCustomers.Customer",
          "name": "customer",
          "type": "tuple"
        }
      ],
      "name": "updateCustomer",
      "outputs": [],
      "stateMutability": "nonpayable",
      "type": "function"
    },
    {
      "inputs": [
        {
          "internalType": "uint32",
          "name": "_id",
          "type": "uint32"
        }
      ],
      "name": "deleteCustomer",
      "outputs": [],
      "stateMutability": "nonpayable",
      "type": "function"
    }
  ],
  "bytecode": "0x6080604052600080546001600160401b031916905534801561002057600080fd5b50611319806100306000396000f3fe608060405234801561001057600080fd5b506004361061007d5760003560e01c806385ec526d1161005b57806385ec526d146100c85780638a11265a146100e8578063b39ed84314610114578063d39e50e11461012757600080fd5b80634052dfb01461008257806366544cc7146100975780637da67ba8146100aa575b600080fd5b610095610090366004610f05565b61014b565b005b6100956100a5366004610f53565b610208565b6100b2610308565b6040516100bf919061103f565b60405180910390f35b6100db6100d63660046110a1565b610659565b6040516100bf91906110c3565b6000546100ff90600160201b900463ffffffff1681565b60405163ffffffff90911681526020016100bf565b6100956101223660046110a1565b610aba565b61013a6101353660046110a1565b610b5c565b6040516100bf9594939291906110d6565b60005b60005463ffffffff600160201b9091048116908216116102035763ffffffff81811660009081526001602052604090205490841690036101f15763ffffffff8116600090815260016020818152604090922084518155918401518492918201906101b890826111b0565b50604082015160028201906101cd90826111b0565b50606082015160038201906101e290826111b0565b50608082015181600401559050505b806101fb81611286565b91505061014e565b505050565b60005461021c9063ffffffff1660016112a9565b63ffffffff90811682526000805483926001929116818061023c83611286565b91906101000a81548163ffffffff021916908363ffffffff16021790555063ffffffff1663ffffffff16815260200190815260200160002060008201518160000155602082015181600101908161029391906111b0565b50604082015160028201906102a890826111b0565b50606082015160038201906102bd90826111b0565b506080919091015160049182015560008054600160201b900463ffffffff16916102e683611286565b91906101000a81548163ffffffff021916908363ffffffff1602179055505050565b60606000805b60005463ffffffff600160201b909104811690821610156103645763ffffffff811660009081526001602052604090205415610352578161034e81611286565b9250505b8061035c81611286565b91505061030e565b5060008163ffffffff1667ffffffffffffffff81111561038657610386610d91565b6040519080825280602002602001820160405280156103e957816020015b6103d66040518060a0016040528060008152602001606081526020016060815260200160608152602001600081525090565b8152602001906001900390816103a45790505b5090506000805b60005463ffffffff600160201b909104811690821610156106505763ffffffff81166000908152600160205260409020541561063e5763ffffffff8116600090815260016020818152604092839020835160a081019094528054845291820180549184019161045e90611128565b80601f016020809104026020016040519081016040528092919081815260200182805461048a90611128565b80156104d75780601f106104ac576101008083540402835291602001916104d7565b820191906000526020600020905b8154815290600101906020018083116104ba57829003601f168201915b505050505081526020016002820180546104f090611128565b80601f016020809104026020016040519081016040528092919081815260200182805461051c90611128565b80156105695780601f1061053e57610100808354040283529160200191610569565b820191906000526020600020905b81548152906001019060200180831161054c57829003601f168201915b5050505050815260200160038201805461058290611128565b80601f01602080910402602001604051908101604052809291908181526020018280546105ae90611128565b80156105fb5780601f106105d0576101008083540402835291602001916105fb565b820191906000526020600020905b8154815290600101906020018083116105de57829003601f168201915b5050505050815260200160048201548152505083838061061a90611286565b945063ffffffff1681518110610632576106326112cd565b60200260200101819052505b8061064881611286565b9150506103f0565b50909392505050565b61068b6040518060a0016040528060008152602001606081526020016060815260200160608152602001600081525090565b60005b60005463ffffffff600160201b9091048116908216116108ca5763ffffffff81811660009081526001602052604090205490841690036108b85763ffffffff8116600090815260016020818152604092839020835160a081019094528054845291820180549184019161070090611128565b80601f016020809104026020016040519081016040528092919081815260200182805461072c90611128565b80156107795780601f1061074e57610100808354040283529160200191610779565b820191906000526020600020905b81548152906001019060200180831161075c57829003601f168201915b5050505050815260200160028201805461079290611128565b80601f01602080910402602001604051908101604052809291908181526020018280546107be90611128565b801561080b5780601f106107e05761010080835404028352916020019161080b565b820191906000526020600020905b8154815290600101906020018083116107ee57829003601f168201915b5050505050815260200160038201805461082490611128565b80601f016020809104026020016040519081016040528092919081815260200182805461085090611128565b801561089d5780601f106108725761010080835404028352916020019161089d565b820191906000526020600020905b81548152906001019060200180831161088057829003601f168201915b50505050508152602001600482015481525050915050919050565b806108c281611286565b91505061068e565b5063ffffffff8216600090815260016020818152604092839020835160a081019094528054845291820180549184019161090390611128565b80601f016020809104026020016040519081016040528092919081815260200182805461092f90611128565b801561097c5780601f106109515761010080835404028352916020019161097c565b820191906000526020600020905b81548152906001019060200180831161095f57829003601f168201915b5050505050815260200160028201805461099590611128565b80601f01602080910402602001604051908101604052809291908181526020018280546109c190611128565b8015610a0e5780601f106109e357610100808354040283529160200191610a0e565b820191906000526020600020905b8154815290600101906020018083116109f157829003601f168201915b50505050508152602001600382018054610a2790611128565b80601f0160208091040260200160405190810160405280929190818152602001828054610a5390611128565b8015610aa05780601f10610a7557610100808354040283529160200191610aa0565b820191906000526020600020905b815481529060010190602001808311610a8357829003601f168201915b505050505081526020016004820154815250509050919050565b60005b60005463ffffffff600160201b909104811690821611610b585763ffffffff8181166000908152600160205260409020549083169003610b465763ffffffff8116600090815260016020819052604082208281559190610b1f90830182610d22565b610b2d600283016000610d22565b610b3b600383016000610d22565b600482016000905550505b80610b5081611286565b915050610abd565b5050565b600160208190526000918252604090912080549181018054610b7d90611128565b80601f0160208091040260200160405190810160405280929190818152602001828054610ba990611128565b8015610bf65780601f10610bcb57610100808354040283529160200191610bf6565b820191906000526020600020905b815481529060010190602001808311610bd957829003601f168201915b505050505090806002018054610c0b90611128565b80601f0160208091040260200160405190810160405280929190818152602001828054610c3790611128565b8015610c845780601f10610c5957610100808354040283529160200191610c84565b820191906000526020600020905b815481529060010190602001808311610c6757829003601f168201915b505050505090806003018054610c9990611128565b80601f0160208091040260200160405190810160405280929190818152602001828054610cc590611128565b8015610d125780601f10610ce757610100808354040283529160200191610d12565b820191906000526020600020905b815481529060010190602001808311610cf557829003601f168201915b5050505050908060040154905085565b508054610d2e90611128565b6000825580601f10610d3e575050565b601f016020900490600052602060002090810190610d5c9190610d5f565b50565b5b80821115610d745760008155600101610d60565b5090565b803563ffffffff81168114610d8c57600080fd5b919050565b634e487b7160e01b600052604160045260246000fd5b60405160a0810167ffffffffffffffff81118282101715610dca57610dca610d91565b60405290565b600082601f830112610de157600080fd5b813567ffffffffffffffff80821115610dfc57610dfc610d91565b604051601f8301601f19908116603f01168101908282118183101715610e2457610e24610d91565b81604052838152866020858801011115610e3d57600080fd5b836020870160208301376000602085830101528094505050505092915050565b600060a08284031215610e6f57600080fd5b610e77610da7565b905081358152602082013567ffffffffffffffff80821115610e9857600080fd5b610ea485838601610dd0565b60208401526040840135915080821115610ebd57600080fd5b610ec985838601610dd0565b60408401526060840135915080821115610ee257600080fd5b50610eef84828501610dd0565b6060830152506080820135608082015292915050565b60008060408385031215610f1857600080fd5b610f2183610d78565b9150602083013567ffffffffffffffff811115610f3d57600080fd5b610f4985828601610e5d565b9150509250929050565b600060208284031215610f6557600080fd5b813567ffffffffffffffff811115610f7c57600080fd5b610f8884828501610e5d565b949350505050565b6000815180845260005b81811015610fb657602081850181015186830182015201610f9a565b506000602082860101526020601f19601f83011685010191505092915050565b805182526000602082015160a06020850152610ff560a0850182610f90565b90506040830151848203604086015261100e8282610f90565b915050606083015184820360608601526110288282610f90565b915050608083015160808501528091505092915050565b6000602080830181845280855180835260408601915060408160051b870101925083870160005b8281101561109457603f19888603018452611082858351610fd6565b94509285019290850190600101611066565b5092979650505050505050565b6000602082840312156110b357600080fd5b6110bc82610d78565b9392505050565b6020815260006110bc6020830184610fd6565b85815260a0602082015260006110ef60a0830187610f90565b82810360408401526111018187610f90565b905082810360608401526111158186610f90565b9150508260808301529695505050505050565b600181811c9082168061113c57607f821691505b60208210810361115c57634e487b7160e01b600052602260045260246000fd5b50919050565b601f82111561020357600081815260208120601f850160051c810160208610156111895750805b601f850160051c820191505b818110156111a857828155600101611195565b505050505050565b815167ffffffffffffffff8111156111ca576111ca610d91565b6111de816111d88454611128565b84611162565b602080601f83116001811461121357600084156111fb5750858301515b600019600386901b1c1916600185901b1785556111a8565b600085815260208120601f198616915b8281101561124257888601518255948401946001909101908401611223565b50858210156112605787850151600019600388901b60f8161c191681555b5050505050600190811b01905550565b634e487b7160e01b600052601160045260246000fd5b600063ffffffff80831681810361129f5761129f611270565b6001019392505050565b63ffffffff8181168382160190808211156112c6576112c6611270565b5092915050565b634e487b7160e01b600052603260045260246000fdfea26469706673582212201f39dcffc319cda7cc180ad2b7f9fcf283819ed5a079fd43e50e27dba4471a6d64736f6c63430008130033",
  "immutableReferences": {},
  "source": "// SPDX-License-Identifier: MIT\r\npragma solidity 0.8.19;\r\n\r\ncontract StoreCustomers {\r\n\r\n    struct Customer {\r\n        uint id;\r\n        string name;\r\n        string email;\r\n        string phone;\r\n        uint age;\r\n    }\r\n\r\n    uint32 private nextId = 0;\r\n    uint32 public finalCount = 0;\r\n\r\n    mapping(uint32 => Customer) public customers;\r\n\r\n    function addCustomer(Customer memory newCustomer) public {\r\n        newCustomer.id = nextId + 1;\r\n        customers[nextId++] = newCustomer;\r\n        finalCount++;\r\n    }\r\n\r\n    function getCustomer(uint32 _id) public view returns (Customer memory) {\r\n        for (uint32 i = 0; i <= finalCount; i++) {\r\n            if (customers[i].id == _id) {\r\n                return customers[i];\r\n            }\r\n        }\r\n        return customers[_id];\r\n    }\r\n\r\n    function getAllCustomers() public view returns (Customer[] memory) {\r\n        uint32 counter = 0;\r\n        for (uint32 i = 0; i < finalCount; i++) {\r\n            if (customers[i].id != 0) {\r\n                counter++;\r\n            }\r\n        }\r\n        Customer[] memory result = new Customer[](counter);\r\n        uint32 counterTwo = 0;\r\n        for (uint32 i = 0; i < finalCount; i++) {\r\n            if (customers[i].id != 0) {\r\n                result[counterTwo++] = customers[i];\r\n            }\r\n        }\r\n        return result;\r\n    }\r\n\r\n    function updateCustomer(uint32 _id, Customer memory customer) public {\r\n        for (uint32 i = 0; i <= finalCount; i++) {\r\n            if (customers[i].id == _id) {\r\n                customers[i] = customer;\r\n            }\r\n        }\r\n    }\r\n\r\n    function deleteCustomer(uint32 _id) public {\r\n        for (uint32 i = 0; i <= finalCount; i++) {\r\n            if (customers[i].id == _id) {\r\n                delete customers[i];\r\n            }\r\n        }\r\n    }\r\n\r\n}",
  "sourcePath": "C:\\github\\gabyhud\\trabalho-final\\tuffle-crud\\contracts\\StoreCustomers.sol",
  "compiler": {
    "name": "solc",
    "version": "0.8.19+commit.7dd6d404.Emscripten.clang"
  },
  "schemaVersion": "3.4.14",
  "updatedAt": "2023-05-28T03:50:37.831Z",
  "networkType": "ethereum",
  "devdoc": {
    "kind": "dev",
    "methods": {},
    "version": 1
  },
  "userdoc": {
    "kind": "user",
    "methods": {},
    "version": 1
  }
}