{
  "_format": "hh-sol-artifact-1",
  "contractName": "Cat",
  "sourceName": "contracts/Cat.sol",
  "abi": [
    {
      "inputs": [],
      "stateMutability": "nonpayable",
      "type": "constructor"
    },
    {
      "anonymous": false,
      "inputs": [
        {
          "indexed": true,
          "internalType": "address",
          "name": "owner",
          "type": "address"
        },
        {
          "indexed": true,
          "internalType": "address",
          "name": "approved",
          "type": "address"
        },
        {
          "indexed": true,
          "internalType": "uint256",
          "name": "tokenId",
          "type": "uint256"
        }
      ],
      "name": "Approval",
      "type": "event"
    },
    {
      "anonymous": false,
      "inputs": [
        {
          "indexed": true,
          "internalType": "address",
          "name": "owner",
          "type": "address"
        },
        {
          "indexed": true,
          "internalType": "address",
          "name": "operator",
          "type": "address"
        },
        {
          "indexed": false,
          "internalType": "bool",
          "name": "approved",
          "type": "bool"
        }
      ],
      "name": "ApprovalForAll",
      "type": "event"
    },
    {
      "anonymous": false,
      "inputs": [
        {
          "indexed": false,
          "internalType": "uint256",
          "name": "_fromTokenId",
          "type": "uint256"
        },
        {
          "indexed": false,
          "internalType": "uint256",
          "name": "_toTokenId",
          "type": "uint256"
        }
      ],
      "name": "BatchMetadataUpdate",
      "type": "event"
    },
    {
      "anonymous": false,
      "inputs": [
        {
          "indexed": false,
          "internalType": "uint256",
          "name": "_tokenId",
          "type": "uint256"
        }
      ],
      "name": "MetadataUpdate",
      "type": "event"
    },
    {
      "anonymous": false,
      "inputs": [
        {
          "indexed": true,
          "internalType": "address",
          "name": "previousOwner",
          "type": "address"
        },
        {
          "indexed": true,
          "internalType": "address",
          "name": "newOwner",
          "type": "address"
        }
      ],
      "name": "OwnershipTransferred",
      "type": "event"
    },
    {
      "anonymous": false,
      "inputs": [
        {
          "indexed": true,
          "internalType": "address",
          "name": "from",
          "type": "address"
        },
        {
          "indexed": true,
          "internalType": "address",
          "name": "to",
          "type": "address"
        },
        {
          "indexed": true,
          "internalType": "uint256",
          "name": "tokenId",
          "type": "uint256"
        }
      ],
      "name": "Transfer",
      "type": "event"
    },
    {
      "inputs": [
        {
          "internalType": "address",
          "name": "to",
          "type": "address"
        },
        {
          "internalType": "uint256",
          "name": "tokenId",
          "type": "uint256"
        }
      ],
      "name": "approve",
      "outputs": [],
      "stateMutability": "nonpayable",
      "type": "function"
    },
    {
      "inputs": [
        {
          "internalType": "address",
          "name": "owner",
          "type": "address"
        }
      ],
      "name": "balanceOf",
      "outputs": [
        {
          "internalType": "uint256",
          "name": "",
          "type": "uint256"
        }
      ],
      "stateMutability": "view",
      "type": "function"
    },
    {
      "inputs": [
        {
          "internalType": "uint256",
          "name": "tokenId",
          "type": "uint256"
        }
      ],
      "name": "getApproved",
      "outputs": [
        {
          "internalType": "address",
          "name": "",
          "type": "address"
        }
      ],
      "stateMutability": "view",
      "type": "function"
    },
    {
      "inputs": [
        {
          "internalType": "uint256",
          "name": "tokenId",
          "type": "uint256"
        }
      ],
      "name": "getRarity",
      "outputs": [
        {
          "internalType": "uint32",
          "name": "",
          "type": "uint32"
        }
      ],
      "stateMutability": "view",
      "type": "function"
    },
    {
      "inputs": [
        {
          "internalType": "address",
          "name": "owner",
          "type": "address"
        },
        {
          "internalType": "address",
          "name": "operator",
          "type": "address"
        }
      ],
      "name": "isApprovedForAll",
      "outputs": [
        {
          "internalType": "bool",
          "name": "",
          "type": "bool"
        }
      ],
      "stateMutability": "view",
      "type": "function"
    },
    {
      "inputs": [
        {
          "internalType": "address",
          "name": "recipient",
          "type": "address"
        },
        {
          "internalType": "string",
          "name": "tokenURI",
          "type": "string"
        },
        {
          "internalType": "uint32",
          "name": "_rarity",
          "type": "uint32"
        }
      ],
      "name": "mintNFT",
      "outputs": [
        {
          "internalType": "uint256",
          "name": "",
          "type": "uint256"
        }
      ],
      "stateMutability": "nonpayable",
      "type": "function"
    },
    {
      "inputs": [],
      "name": "name",
      "outputs": [
        {
          "internalType": "string",
          "name": "",
          "type": "string"
        }
      ],
      "stateMutability": "view",
      "type": "function"
    },
    {
      "inputs": [],
      "name": "owner",
      "outputs": [
        {
          "internalType": "address",
          "name": "",
          "type": "address"
        }
      ],
      "stateMutability": "view",
      "type": "function"
    },
    {
      "inputs": [
        {
          "internalType": "uint256",
          "name": "tokenId",
          "type": "uint256"
        }
      ],
      "name": "ownerOf",
      "outputs": [
        {
          "internalType": "address",
          "name": "",
          "type": "address"
        }
      ],
      "stateMutability": "view",
      "type": "function"
    },
    {
      "inputs": [],
      "name": "renounceOwnership",
      "outputs": [],
      "stateMutability": "nonpayable",
      "type": "function"
    },
    {
      "inputs": [
        {
          "internalType": "address",
          "name": "from",
          "type": "address"
        },
        {
          "internalType": "address",
          "name": "to",
          "type": "address"
        },
        {
          "internalType": "uint256",
          "name": "tokenId",
          "type": "uint256"
        }
      ],
      "name": "safeTransferFrom",
      "outputs": [],
      "stateMutability": "nonpayable",
      "type": "function"
    },
    {
      "inputs": [
        {
          "internalType": "address",
          "name": "from",
          "type": "address"
        },
        {
          "internalType": "address",
          "name": "to",
          "type": "address"
        },
        {
          "internalType": "uint256",
          "name": "tokenId",
          "type": "uint256"
        },
        {
          "internalType": "bytes",
          "name": "data",
          "type": "bytes"
        }
      ],
      "name": "safeTransferFrom",
      "outputs": [],
      "stateMutability": "nonpayable",
      "type": "function"
    },
    {
      "inputs": [
        {
          "internalType": "address",
          "name": "operator",
          "type": "address"
        },
        {
          "internalType": "bool",
          "name": "approved",
          "type": "bool"
        }
      ],
      "name": "setApprovalForAll",
      "outputs": [],
      "stateMutability": "nonpayable",
      "type": "function"
    },
    {
      "inputs": [
        {
          "internalType": "bytes4",
          "name": "interfaceId",
          "type": "bytes4"
        }
      ],
      "name": "supportsInterface",
      "outputs": [
        {
          "internalType": "bool",
          "name": "",
          "type": "bool"
        }
      ],
      "stateMutability": "view",
      "type": "function"
    },
    {
      "inputs": [],
      "name": "symbol",
      "outputs": [
        {
          "internalType": "string",
          "name": "",
          "type": "string"
        }
      ],
      "stateMutability": "view",
      "type": "function"
    },
    {
      "inputs": [
        {
          "internalType": "uint256",
          "name": "tokenId",
          "type": "uint256"
        }
      ],
      "name": "tokenURI",
      "outputs": [
        {
          "internalType": "string",
          "name": "",
          "type": "string"
        }
      ],
      "stateMutability": "view",
      "type": "function"
    },
    {
      "inputs": [
        {
          "internalType": "address",
          "name": "from",
          "type": "address"
        },
        {
          "internalType": "address",
          "name": "to",
          "type": "address"
        },
        {
          "internalType": "uint256",
          "name": "tokenId",
          "type": "uint256"
        }
      ],
      "name": "transferFrom",
      "outputs": [],
      "stateMutability": "nonpayable",
      "type": "function"
    },
    {
      "inputs": [
        {
          "internalType": "address",
          "name": "newOwner",
          "type": "address"
        }
      ],
      "name": "transferOwnership",
      "outputs": [],
      "stateMutability": "nonpayable",
      "type": "function"
    }
  ],
  "bytecode": "0x60806040523480156200001157600080fd5b50604051806040016040528060048152602001634361747360e01b815250604051806040016040528060048152602001631650d85d60e21b815250816000908051906020019062000064929190620000f3565b5080516200007a906001906020840190620000f3565b50505062000097620000916200009d60201b60201c565b620000a1565b620001d6565b3390565b600780546001600160a01b038381166001600160a01b0319831681179093556040519116919082907f8be0079c531659141344cd1fd0a4f28419497f9722a3daafe3b4186f6b6457e090600090a35050565b828054620001019062000199565b90600052602060002090601f01602090048101928262000125576000855562000170565b82601f106200014057805160ff191683800117855562000170565b8280016001018555821562000170579182015b828111156200017057825182559160200191906001019062000153565b506200017e92915062000182565b5090565b5b808211156200017e576000815560010162000183565b600181811c90821680620001ae57607f821691505b60208210811415620001d057634e487b7160e01b600052602260045260246000fd5b50919050565b61182580620001e66000396000f3fe608060405234801561001057600080fd5b50600436106101165760003560e01c806370a08231116100a2578063a22cb46511610071578063a22cb46514610261578063b88d4fde14610274578063c87b56dd14610287578063e985e9c51461029a578063f2fde38b146102d657600080fd5b806370a082311461022d578063715018a6146102405780638da5cb5b1461024857806395d89b411461025957600080fd5b806323b872dd116100e957806323b872dd1461019857806342842e0e146101ab57806348758697146101be5780636352211e146101f95780636aa810151461020c57600080fd5b806301ffc9a71461011b57806306fdde0314610143578063081812fc14610158578063095ea7b314610183575b600080fd5b61012e610129366004611313565b6102e9565b60405190151581526020015b60405180910390f35b61014b610314565b60405161013a9190611388565b61016b61016636600461139b565b6103a6565b6040516001600160a01b03909116815260200161013a565b6101966101913660046113d0565b6103cd565b005b6101966101a63660046113fa565b6104e8565b6101966101b93660046113fa565b610519565b6101e46101cc36600461139b565b60009081526009602052604090205463ffffffff1690565b60405163ffffffff909116815260200161013a565b61016b61020736600461139b565b610534565b61021f61021a3660046114c2565b610594565b60405190815260200161013a565b61021f61023b366004611541565b6105f9565b61019661067f565b6007546001600160a01b031661016b565b61014b610693565b61019661026f36600461155c565b6106a2565b610196610282366004611598565b6106b1565b61014b61029536600461139b565b6106e9565b61012e6102a8366004611614565b6001600160a01b03918216600090815260056020908152604080832093909416825291909152205460ff1690565b6101966102e4366004611541565b6107fa565b60006001600160e01b03198216632483248360e11b148061030e575061030e82610873565b92915050565b60606000805461032390611647565b80601f016020809104026020016040519081016040528092919081815260200182805461034f90611647565b801561039c5780601f106103715761010080835404028352916020019161039c565b820191906000526020600020905b81548152906001019060200180831161037f57829003601f168201915b5050505050905090565b60006103b1826108c3565b506000908152600460205260409020546001600160a01b031690565b60006103d882610534565b9050806001600160a01b0316836001600160a01b0316141561044b5760405162461bcd60e51b815260206004820152602160248201527f4552433732313a20617070726f76616c20746f2063757272656e74206f776e656044820152603960f91b60648201526084015b60405180910390fd5b336001600160a01b0382161480610467575061046781336102a8565b6104d95760405162461bcd60e51b815260206004820152603d60248201527f4552433732313a20617070726f76652063616c6c6572206973206e6f7420746f60448201527f6b656e206f776e6572206f7220617070726f76656420666f7220616c6c0000006064820152608401610442565b6104e38383610922565b505050565b6104f23382610990565b61050e5760405162461bcd60e51b815260040161044290611682565b6104e3838383610a0e565b6104e3838383604051806020016040528060008152506106b1565b6000818152600260205260408120546001600160a01b03168061030e5760405162461bcd60e51b8152602060048201526018602482015277115490cdcc8c4e881a5b9d985b1a59081d1bdad95b88125160421b6044820152606401610442565b600061059e610b72565b6105ac600880546001019055565b60006105b760085490565b90506105c38582610bcc565b6105cd8185610d57565b6000818152600960205260409020805463ffffffff851663ffffffff1990911617905590509392505050565b60006001600160a01b0382166106635760405162461bcd60e51b815260206004820152602960248201527f4552433732313a2061646472657373207a65726f206973206e6f7420612076616044820152683634b21037bbb732b960b91b6064820152608401610442565b506001600160a01b031660009081526003602052604090205490565b610687610b72565b6106916000610e29565b565b60606001805461032390611647565b6106ad338383610e7b565b5050565b6106bb3383610990565b6106d75760405162461bcd60e51b815260040161044290611682565b6106e384848484610f4a565b50505050565b60606106f4826108c3565b6000828152600660205260408120805461070d90611647565b80601f016020809104026020016040519081016040528092919081815260200182805461073990611647565b80156107865780601f1061075b57610100808354040283529160200191610786565b820191906000526020600020905b81548152906001019060200180831161076957829003601f168201915b5050505050905060006107a460408051602081019091526000815290565b90508051600014156107b7575092915050565b8151156107e95780826040516020016107d19291906116cf565b60405160208183030381529060405292505050919050565b6107f284610f7d565b949350505050565b610802610b72565b6001600160a01b0381166108675760405162461bcd60e51b815260206004820152602660248201527f4f776e61626c653a206e6577206f776e657220697320746865207a65726f206160448201526564647265737360d01b6064820152608401610442565b61087081610e29565b50565b60006001600160e01b031982166380ac58cd60e01b14806108a457506001600160e01b03198216635b5e139f60e01b145b8061030e57506301ffc9a760e01b6001600160e01b031983161461030e565b6000818152600260205260409020546001600160a01b03166108705760405162461bcd60e51b8152602060048201526018602482015277115490cdcc8c4e881a5b9d985b1a59081d1bdad95b88125160421b6044820152606401610442565b600081815260046020526040902080546001600160a01b0319166001600160a01b038416908117909155819061095782610534565b6001600160a01b03167f8c5be1e5ebec7d5bd14f71427d1e84f3dd0314c0f7b2291e5b200ac8c7c3b92560405160405180910390a45050565b60008061099c83610534565b9050806001600160a01b0316846001600160a01b031614806109e357506001600160a01b0380821660009081526005602090815260408083209388168352929052205460ff165b806107f25750836001600160a01b03166109fc846103a6565b6001600160a01b031614949350505050565b826001600160a01b0316610a2182610534565b6001600160a01b031614610a475760405162461bcd60e51b8152600401610442906116fe565b6001600160a01b038216610aa95760405162461bcd60e51b8152602060048201526024808201527f4552433732313a207472616e7366657220746f20746865207a65726f206164646044820152637265737360e01b6064820152608401610442565b826001600160a01b0316610abc82610534565b6001600160a01b031614610ae25760405162461bcd60e51b8152600401610442906116fe565b600081815260046020908152604080832080546001600160a01b03199081169091556001600160a01b0387811680865260038552838620805460001901905590871680865283862080546001019055868652600290945282852080549092168417909155905184937fddf252ad1be2c89b69c2b068fc378daa952ba7f163c4a11628f55a4df523b3ef91a4505050565b6007546001600160a01b031633146106915760405162461bcd60e51b815260206004820181905260248201527f4f776e61626c653a2063616c6c6572206973206e6f7420746865206f776e65726044820152606401610442565b6001600160a01b038216610c225760405162461bcd60e51b815260206004820181905260248201527f4552433732313a206d696e7420746f20746865207a65726f20616464726573736044820152606401610442565b6000818152600260205260409020546001600160a01b031615610c875760405162461bcd60e51b815260206004820152601c60248201527f4552433732313a20746f6b656e20616c7265616479206d696e746564000000006044820152606401610442565b6000818152600260205260409020546001600160a01b031615610cec5760405162461bcd60e51b815260206004820152601c60248201527f4552433732313a20746f6b656e20616c7265616479206d696e746564000000006044820152606401610442565b6001600160a01b038216600081815260036020908152604080832080546001019055848352600290915280822080546001600160a01b0319168417905551839291907fddf252ad1be2c89b69c2b068fc378daa952ba7f163c4a11628f55a4df523b3ef908290a45050565b6000828152600260205260409020546001600160a01b0316610dd25760405162461bcd60e51b815260206004820152602e60248201527f45524337323155524953746f726167653a2055524920736574206f66206e6f6e60448201526d32bc34b9ba32b73a103a37b5b2b760911b6064820152608401610442565b60008281526006602090815260409091208251610df192840190611264565b506040518281527ff8e1a15aba9398e019f0b49df1a4fde98ee17ae345cb5f6b5e2c27f5033e8ce79060200160405180910390a15050565b600780546001600160a01b038381166001600160a01b0319831681179093556040519116919082907f8be0079c531659141344cd1fd0a4f28419497f9722a3daafe3b4186f6b6457e090600090a35050565b816001600160a01b0316836001600160a01b03161415610edd5760405162461bcd60e51b815260206004820152601960248201527f4552433732313a20617070726f766520746f2063616c6c6572000000000000006044820152606401610442565b6001600160a01b03838116600081815260056020908152604080832094871680845294825291829020805460ff191686151590811790915591519182527f17307eab39ab6107e8899845ad3d59bd9653f200f220920489ca2b5937696c31910160405180910390a3505050565b610f55848484610a0e565b610f6184848484610ff1565b6106e35760405162461bcd60e51b815260040161044290611743565b6060610f88826108c3565b6000610f9f60408051602081019091526000815290565b90506000815111610fbf5760405180602001604052806000815250610fea565b80610fc9846110ef565b604051602001610fda9291906116cf565b6040516020818303038152906040525b9392505050565b60006001600160a01b0384163b156110e457604051630a85bd0160e11b81526001600160a01b0385169063150b7a0290611035903390899088908890600401611795565b6020604051808303816000875af1925050508015611070575060408051601f3d908101601f1916820190925261106d918101906117d2565b60015b6110ca573d80801561109e576040519150601f19603f3d011682016040523d82523d6000602084013e6110a3565b606091505b5080516110c25760405162461bcd60e51b815260040161044290611743565b805181602001fd5b6001600160e01b031916630a85bd0160e11b1490506107f2565b506001949350505050565b606060006110fc8361118c565b600101905060008167ffffffffffffffff81111561111c5761111c611436565b6040519080825280601f01601f191660200182016040528015611146576020820181803683370190505b5090508181016020015b600019016f181899199a1a9b1b9c1cb0b131b232b360811b600a86061a8153600a850494508461117f57611184565b611150565b509392505050565b60008072184f03e93ff9f4daa797ed6e38ed64bf6a1f0160401b83106111cb5772184f03e93ff9f4daa797ed6e38ed64bf6a1f0160401b830492506040015b6d04ee2d6d415b85acef810000000083106111f7576d04ee2d6d415b85acef8100000000830492506020015b662386f26fc10000831061121557662386f26fc10000830492506010015b6305f5e100831061122d576305f5e100830492506008015b612710831061124157612710830492506004015b60648310611253576064830492506002015b600a831061030e5760010192915050565b82805461127090611647565b90600052602060002090601f01602090048101928261129257600085556112d8565b82601f106112ab57805160ff19168380011785556112d8565b828001600101855582156112d8579182015b828111156112d85782518255916020019190600101906112bd565b506112e49291506112e8565b5090565b5b808211156112e457600081556001016112e9565b6001600160e01b03198116811461087057600080fd5b60006020828403121561132557600080fd5b8135610fea816112fd565b60005b8381101561134b578181015183820152602001611333565b838111156106e35750506000910152565b60008151808452611374816020860160208601611330565b601f01601f19169290920160200192915050565b602081526000610fea602083018461135c565b6000602082840312156113ad57600080fd5b5035919050565b80356001600160a01b03811681146113cb57600080fd5b919050565b600080604083850312156113e357600080fd5b6113ec836113b4565b946020939093013593505050565b60008060006060848603121561140f57600080fd5b611418846113b4565b9250611426602085016113b4565b9150604084013590509250925092565b634e487b7160e01b600052604160045260246000fd5b600067ffffffffffffffff8084111561146757611467611436565b604051601f8501601f19908116603f0116810190828211818310171561148f5761148f611436565b816040528093508581528686860111156114a857600080fd5b858560208301376000602087830101525050509392505050565b6000806000606084860312156114d757600080fd5b6114e0846113b4565b9250602084013567ffffffffffffffff8111156114fc57600080fd5b8401601f8101861361150d57600080fd5b61151c8682356020840161144c565b925050604084013563ffffffff8116811461153657600080fd5b809150509250925092565b60006020828403121561155357600080fd5b610fea826113b4565b6000806040838503121561156f57600080fd5b611578836113b4565b91506020830135801515811461158d57600080fd5b809150509250929050565b600080600080608085870312156115ae57600080fd5b6115b7856113b4565b93506115c5602086016113b4565b925060408501359150606085013567ffffffffffffffff8111156115e857600080fd5b8501601f810187136115f957600080fd5b6116088782356020840161144c565b91505092959194509250565b6000806040838503121561162757600080fd5b611630836113b4565b915061163e602084016113b4565b90509250929050565b600181811c9082168061165b57607f821691505b6020821081141561167c57634e487b7160e01b600052602260045260246000fd5b50919050565b6020808252602d908201527f4552433732313a2063616c6c6572206973206e6f7420746f6b656e206f776e6560408201526c1c881bdc88185c1c1c9bdd9959609a1b606082015260800190565b600083516116e1818460208801611330565b8351908301906116f5818360208801611330565b01949350505050565b60208082526025908201527f4552433732313a207472616e736665722066726f6d20696e636f72726563742060408201526437bbb732b960d91b606082015260800190565b60208082526032908201527f4552433732313a207472616e7366657220746f206e6f6e20455243373231526560408201527131b2b4bb32b91034b6b83632b6b2b73a32b960711b606082015260800190565b6001600160a01b03858116825284166020820152604081018390526080606082018190526000906117c89083018461135c565b9695505050505050565b6000602082840312156117e457600080fd5b8151610fea816112fd56fea26469706673582212205bd57484f778725ad3cac0b4347021f905d8862e0117236e0f9c1e9aa85a4fd064736f6c634300080c0033",
  "linkReferences": {},
  "deployedLinkReferences": {}
}