{
  "_format": "hh-sol-artifact-1",
  "contractName": "EduCollectNFT",
  "sourceName": "contracts/EduCollectNFT.sol",
  "abi": [
    {
      "inputs": [],
      "stateMutability": "nonpayable",
      "type": "constructor"
    },
    {
      "anonymous": false,
      "inputs": [
        {
          "indexed": true,
          "internalType": "address",
          "name": "owner",
          "type": "address"
        },
        {
          "indexed": true,
          "internalType": "address",
          "name": "approved",
          "type": "address"
        },
        {
          "indexed": true,
          "internalType": "uint256",
          "name": "tokenId",
          "type": "uint256"
        }
      ],
      "name": "Approval",
      "type": "event"
    },
    {
      "anonymous": false,
      "inputs": [
        {
          "indexed": true,
          "internalType": "address",
          "name": "owner",
          "type": "address"
        },
        {
          "indexed": true,
          "internalType": "address",
          "name": "operator",
          "type": "address"
        },
        {
          "indexed": false,
          "internalType": "bool",
          "name": "approved",
          "type": "bool"
        }
      ],
      "name": "ApprovalForAll",
      "type": "event"
    },
    {
      "anonymous": false,
      "inputs": [
        {
          "indexed": false,
          "internalType": "uint256",
          "name": "_fromTokenId",
          "type": "uint256"
        },
        {
          "indexed": false,
          "internalType": "uint256",
          "name": "_toTokenId",
          "type": "uint256"
        }
      ],
      "name": "BatchMetadataUpdate",
      "type": "event"
    },
    {
      "anonymous": false,
      "inputs": [
        {
          "indexed": false,
          "internalType": "uint256",
          "name": "_tokenId",
          "type": "uint256"
        }
      ],
      "name": "MetadataUpdate",
      "type": "event"
    },
    {
      "anonymous": false,
      "inputs": [
        {
          "indexed": true,
          "internalType": "address",
          "name": "previousOwner",
          "type": "address"
        },
        {
          "indexed": true,
          "internalType": "address",
          "name": "newOwner",
          "type": "address"
        }
      ],
      "name": "OwnershipTransferred",
      "type": "event"
    },
    {
      "anonymous": false,
      "inputs": [
        {
          "indexed": true,
          "internalType": "address",
          "name": "from",
          "type": "address"
        },
        {
          "indexed": true,
          "internalType": "address",
          "name": "to",
          "type": "address"
        },
        {
          "indexed": true,
          "internalType": "uint256",
          "name": "tokenId",
          "type": "uint256"
        }
      ],
      "name": "Transfer",
      "type": "event"
    },
    {
      "inputs": [
        {
          "internalType": "address",
          "name": "to",
          "type": "address"
        },
        {
          "internalType": "uint256",
          "name": "tokenId",
          "type": "uint256"
        }
      ],
      "name": "approve",
      "outputs": [],
      "stateMutability": "nonpayable",
      "type": "function"
    },
    {
      "inputs": [
        {
          "internalType": "address",
          "name": "owner",
          "type": "address"
        }
      ],
      "name": "balanceOf",
      "outputs": [
        {
          "internalType": "uint256",
          "name": "",
          "type": "uint256"
        }
      ],
      "stateMutability": "view",
      "type": "function"
    },
    {
      "inputs": [
        {
          "internalType": "address",
          "name": "recipient",
          "type": "address"
        },
        {
          "internalType": "string",
          "name": "name",
          "type": "string"
        },
        {
          "internalType": "string",
          "name": "description",
          "type": "string"
        },
        {
          "internalType": "string",
          "name": "hashDataId",
          "type": "string"
        }
      ],
      "name": "createBadge",
      "outputs": [
        {
          "internalType": "uint256",
          "name": "",
          "type": "uint256"
        }
      ],
      "stateMutability": "nonpayable",
      "type": "function"
    },
    {
      "inputs": [
        {
          "internalType": "uint256",
          "name": "badgeId",
          "type": "uint256"
        }
      ],
      "name": "deleteBadgeById",
      "outputs": [],
      "stateMutability": "nonpayable",
      "type": "function"
    },
    {
      "inputs": [
        {
          "internalType": "uint256",
          "name": "tokenId",
          "type": "uint256"
        }
      ],
      "name": "getApproved",
      "outputs": [
        {
          "internalType": "address",
          "name": "",
          "type": "address"
        }
      ],
      "stateMutability": "view",
      "type": "function"
    },
    {
      "inputs": [
        {
          "internalType": "uint256",
          "name": "badgeId",
          "type": "uint256"
        }
      ],
      "name": "getBadgeById",
      "outputs": [
        {
          "internalType": "uint256",
          "name": "id",
          "type": "uint256"
        },
        {
          "internalType": "string",
          "name": "name",
          "type": "string"
        },
        {
          "internalType": "string",
          "name": "description",
          "type": "string"
        },
        {
          "internalType": "string",
          "name": "metadados",
          "type": "string"
        }
      ],
      "stateMutability": "view",
      "type": "function"
    },
    {
      "inputs": [
        {
          "internalType": "uint256",
          "name": "badgeId",
          "type": "uint256"
        }
      ],
      "name": "getBadgeMetadata",
      "outputs": [
        {
          "internalType": "string",
          "name": "metadata",
          "type": "string"
        }
      ],
      "stateMutability": "view",
      "type": "function"
    },
    {
      "inputs": [
        {
          "internalType": "uint256",
          "name": "badgeId",
          "type": "uint256"
        }
      ],
      "name": "getBadgeOwner",
      "outputs": [
        {
          "internalType": "address",
          "name": "",
          "type": "address"
        }
      ],
      "stateMutability": "view",
      "type": "function"
    },
    {
      "inputs": [
        {
          "internalType": "address",
          "name": "owner",
          "type": "address"
        },
        {
          "internalType": "address",
          "name": "operator",
          "type": "address"
        }
      ],
      "name": "isApprovedForAll",
      "outputs": [
        {
          "internalType": "bool",
          "name": "",
          "type": "bool"
        }
      ],
      "stateMutability": "view",
      "type": "function"
    },
    {
      "inputs": [],
      "name": "name",
      "outputs": [
        {
          "internalType": "string",
          "name": "",
          "type": "string"
        }
      ],
      "stateMutability": "view",
      "type": "function"
    },
    {
      "inputs": [],
      "name": "owner",
      "outputs": [
        {
          "internalType": "address",
          "name": "",
          "type": "address"
        }
      ],
      "stateMutability": "view",
      "type": "function"
    },
    {
      "inputs": [
        {
          "internalType": "uint256",
          "name": "tokenId",
          "type": "uint256"
        }
      ],
      "name": "ownerOf",
      "outputs": [
        {
          "internalType": "address",
          "name": "",
          "type": "address"
        }
      ],
      "stateMutability": "view",
      "type": "function"
    },
    {
      "inputs": [],
      "name": "renounceOwnership",
      "outputs": [],
      "stateMutability": "nonpayable",
      "type": "function"
    },
    {
      "inputs": [
        {
          "internalType": "address",
          "name": "from",
          "type": "address"
        },
        {
          "internalType": "address",
          "name": "to",
          "type": "address"
        },
        {
          "internalType": "uint256",
          "name": "tokenId",
          "type": "uint256"
        }
      ],
      "name": "safeTransferFrom",
      "outputs": [],
      "stateMutability": "nonpayable",
      "type": "function"
    },
    {
      "inputs": [
        {
          "internalType": "address",
          "name": "from",
          "type": "address"
        },
        {
          "internalType": "address",
          "name": "to",
          "type": "address"
        },
        {
          "internalType": "uint256",
          "name": "tokenId",
          "type": "uint256"
        },
        {
          "internalType": "bytes",
          "name": "data",
          "type": "bytes"
        }
      ],
      "name": "safeTransferFrom",
      "outputs": [],
      "stateMutability": "nonpayable",
      "type": "function"
    },
    {
      "inputs": [
        {
          "internalType": "address",
          "name": "operator",
          "type": "address"
        },
        {
          "internalType": "bool",
          "name": "approved",
          "type": "bool"
        }
      ],
      "name": "setApprovalForAll",
      "outputs": [],
      "stateMutability": "nonpayable",
      "type": "function"
    },
    {
      "inputs": [
        {
          "internalType": "string",
          "name": "baseURI_",
          "type": "string"
        }
      ],
      "name": "setBaseURI",
      "outputs": [],
      "stateMutability": "nonpayable",
      "type": "function"
    },
    {
      "inputs": [
        {
          "internalType": "bytes4",
          "name": "interfaceId",
          "type": "bytes4"
        }
      ],
      "name": "supportsInterface",
      "outputs": [
        {
          "internalType": "bool",
          "name": "",
          "type": "bool"
        }
      ],
      "stateMutability": "view",
      "type": "function"
    },
    {
      "inputs": [],
      "name": "symbol",
      "outputs": [
        {
          "internalType": "string",
          "name": "",
          "type": "string"
        }
      ],
      "stateMutability": "view",
      "type": "function"
    },
    {
      "inputs": [
        {
          "internalType": "uint256",
          "name": "tokenId",
          "type": "uint256"
        }
      ],
      "name": "tokenURI",
      "outputs": [
        {
          "internalType": "string",
          "name": "",
          "type": "string"
        }
      ],
      "stateMutability": "view",
      "type": "function"
    },
    {
      "inputs": [
        {
          "internalType": "address",
          "name": "from",
          "type": "address"
        },
        {
          "internalType": "address",
          "name": "to",
          "type": "address"
        },
        {
          "internalType": "uint256",
          "name": "tokenId",
          "type": "uint256"
        }
      ],
      "name": "transferFrom",
      "outputs": [],
      "stateMutability": "nonpayable",
      "type": "function"
    },
    {
      "inputs": [
        {
          "internalType": "address",
          "name": "newOwner",
          "type": "address"
        }
      ],
      "name": "transferOwnership",
      "outputs": [],
      "stateMutability": "nonpayable",
      "type": "function"
    },
    {
      "inputs": [
        {
          "internalType": "uint256",
          "name": "badgeId",
          "type": "uint256"
        },
        {
          "internalType": "string",
          "name": "name",
          "type": "string"
        },
        {
          "internalType": "string",
          "name": "description",
          "type": "string"
        },
        {
          "internalType": "string",
          "name": "metadata",
          "type": "string"
        }
      ],
      "name": "updateBadgeById",
      "outputs": [
        {
          "components": [
            {
              "internalType": "uint256",
              "name": "id",
              "type": "uint256"
            },
            {
              "internalType": "address",
              "name": "owner",
              "type": "address"
            },
            {
              "internalType": "string",
              "name": "name",
              "type": "string"
            },
            {
              "internalType": "string",
              "name": "description",
              "type": "string"
            },
            {
              "internalType": "string",
              "name": "metadata",
              "type": "string"
            }
          ],
          "internalType": "struct EduCollectNFT.Badge",
          "name": "",
          "type": "tuple"
        }
      ],
      "stateMutability": "nonpayable",
      "type": "function"
    }
  ],
  "bytecode": "0x60806040523480156200001157600080fd5b50604080518082018252600d81526c11591d50dbdb1b1958dd139195609a1b6020808301918252835180850190945260048452634544554360e01b9084015281519192916200006391600091620000f2565b50805162000079906001906020840190620000f2565b50505062000096620000906200009c60201b60201c565b620000a0565b620001d5565b3390565b600780546001600160a01b038381166001600160a01b0319831681179093556040519116919082907f8be0079c531659141344cd1fd0a4f28419497f9722a3daafe3b4186f6b6457e090600090a35050565b828054620001009062000198565b90600052602060002090601f0160209004810192826200012457600085556200016f565b82601f106200013f57805160ff19168380011785556200016f565b828001600101855582156200016f579182015b828111156200016f57825182559160200191906001019062000152565b506200017d92915062000181565b5090565b5b808211156200017d576000815560010162000182565b600181811c90821680620001ad57607f821691505b60208210811415620001cf57634e487b7160e01b600052602260045260246000fd5b50919050565b611eaa80620001e56000396000f3fe608060405234801561001057600080fd5b506004361061014d5760003560e01c8063715018a6116100c3578063b88d4fde1161007c578063b88d4fde146102d9578063c87b56dd146102ec578063d19b6106146102ff578063e985e9c514610312578063f2fde38b1461034e578063fbd1d6cf1461036157600080fd5b8063715018a61461026f578063793df7bd146102775780638da5cb5b1461028a57806395d89b411461029b578063a22cb465146102a3578063b4857ad4146102b657600080fd5b806323b872dd1161011557806323b872dd146101ef57806342842e0e1461020257806355f804b314610215578063586f492e146102285780636352211e1461023b57806370a082311461024e57600080fd5b806301ffc9a71461015257806306fdde031461017a578063081812fc1461018f578063095ea7b3146101ba5780630e5c3b1f146101cf575b600080fd5b61016561016036600461180d565b61038a565b60405190151581526020015b60405180910390f35b6101826103b5565b6040516101719190611889565b6101a261019d36600461189c565b610447565b6040516001600160a01b039091168152602001610171565b6101cd6101c83660046118d1565b61046e565b005b6101e26101dd3660046119a7565b610589565b6040516101719190611a39565b6101cd6101fd366004611aad565b61067c565b6101cd610210366004611aad565b6106ad565b6101cd610223366004611ae9565b6106c8565b6101cd61023636600461189c565b6106e7565b6101a261024936600461189c565b610718565b61026161025c366004611b1e565b610778565b604051908152602001610171565b6101cd6107fe565b610261610285366004611b39565b610812565b6007546001600160a01b03166101a2565b6101826108ac565b6101cd6102b1366004611b75565b6108bb565b6102c96102c436600461189c565b6108c6565b6040516101719493929190611bb1565b6101cd6102e7366004611bfb565b610a3e565b6101826102fa36600461189c565b610a76565b61018261030d36600461189c565b610be8565b610165610320366004611c6b565b6001600160a01b03918216600090815260056020908152604080832093909416825291909152205460ff1690565b6101cd61035c366004611b1e565b610cad565b6101a261036f36600461189c565b6000908152600d60205260409020546001600160a01b031690565b60006001600160e01b03198216632483248360e11b14806103af57506103af82610d23565b92915050565b6060600080546103c490611c9e565b80601f01602080910402602001604051908101604052809291908181526020018280546103f090611c9e565b801561043d5780601f106104125761010080835404028352916020019161043d565b820191906000526020600020905b81548152906001019060200180831161042057829003601f168201915b5050505050905090565b600061045282610d73565b506000908152600460205260409020546001600160a01b031690565b600061047982610718565b9050806001600160a01b0316836001600160a01b031614156104ec5760405162461bcd60e51b815260206004820152602160248201527f4552433732313a20617070726f76616c20746f2063757272656e74206f776e656044820152603960f91b60648201526084015b60405180910390fd5b336001600160a01b038216148061050857506105088133610320565b61057a5760405162461bcd60e51b815260206004820152603d60248201527f4552433732313a20617070726f76652063616c6c6572206973206e6f7420746f60448201527f6b656e206f776e6572206f7220617070726f76656420666f7220616c6c00000060648201526084016104e3565b6105848383610dc3565b505050565b6105c46040518060a001604052806000815260200160006001600160a01b031681526020016060815260200160608152602001606081525090565b6105cd85610e31565b6105e95760405162461bcd60e51b81526004016104e390611cd9565b6000858152600b60209081526040909120855161060892870190611728565b506000858152600c60209081526040909120845161062892860190611728565b506106338583610e4e565b506040805160a0810182528581526000868152600d602090815290839020546001600160a01b03169082015290810184905260608101839052608081018290525b949350505050565b6106863382610ed7565b6106a25760405162461bcd60e51b81526004016104e390611d07565b610584838383610f55565b61058483838360405180602001604052806000815250610a3e565b6106d06110b9565b80516106e390600a906020840190611728565b5050565b6106f081610e31565b61070c5760405162461bcd60e51b81526004016104e390611cd9565b61071581611113565b50565b6000818152600260205260408120546001600160a01b0316806103af5760405162461bcd60e51b8152602060048201526018602482015277115490cdcc8c4e881a5b9d985b1a59081d1bdad95b88125160421b60448201526064016104e3565b60006001600160a01b0382166107e25760405162461bcd60e51b815260206004820152602960248201527f4552433732313a2061646472657373207a65726f206973206e6f7420612076616044820152683634b21037bbb732b960b91b60648201526084016104e3565b506001600160a01b031660009081526003602052604090205490565b6108066110b9565b6108106000611153565b565b6000610822600880546001019055565b600061082d60085490565b905061083986826111a5565b6000818152600d6020908152604080832080546001600160a01b0319166001600160a01b038b16179055600b8252909120865161087892880190611728565b506000818152600c60209081526040909120855161089892870190611728565b506108a38184610e4e565b95945050505050565b6060600180546103c490611c9e565b6106e3338383611312565b600060608060606108d685610e31565b6108f25760405162461bcd60e51b81526004016104e390611cd9565b6000858152600b60209081526040808320600c90925290912086919061091783610a76565b82805461092390611c9e565b80601f016020809104026020016040519081016040528092919081815260200182805461094f90611c9e565b801561099c5780601f106109715761010080835404028352916020019161099c565b820191906000526020600020905b81548152906001019060200180831161097f57829003601f168201915b505050505092508180546109af90611c9e565b80601f01602080910402602001604051908101604052809291908181526020018280546109db90611c9e565b8015610a285780601f106109fd57610100808354040283529160200191610a28565b820191906000526020600020905b815481529060010190602001808311610a0b57829003601f168201915b5050505050915093509350935093509193509193565b610a483383610ed7565b610a645760405162461bcd60e51b81526004016104e390611d07565b610a70848484846113e1565b50505050565b6060610a8182610e31565b610ae55760405162461bcd60e51b815260206004820152602f60248201527f4552433732314d657461646174613a2055524920717565727920666f72206e6f60448201526e3732bc34b9ba32b73a103a37b5b2b760891b60648201526084016104e3565b60008281526009602052604081208054610afe90611c9e565b80601f0160208091040260200160405190810160405280929190818152602001828054610b2a90611c9e565b8015610b775780601f10610b4c57610100808354040283529160200191610b77565b820191906000526020600020905b815481529060010190602001808311610b5a57829003601f168201915b505050505090506000610b88611414565b9050805160001415610b9b575092915050565b815115610bcd578082604051602001610bb5929190611d54565b60405160208183030381529060405292505050919050565b80610bd785611423565b604051602001610bb5929190611d54565b6060610bf382610e31565b610c0f5760405162461bcd60e51b81526004016104e390611cd9565b60008281526009602052604090208054610c2890611c9e565b80601f0160208091040260200160405190810160405280929190818152602001828054610c5490611c9e565b8015610ca15780601f10610c7657610100808354040283529160200191610ca1565b820191906000526020600020905b815481529060010190602001808311610c8457829003601f168201915b50505050509050919050565b610cb56110b9565b6001600160a01b038116610d1a5760405162461bcd60e51b815260206004820152602660248201527f4f776e61626c653a206e6577206f776e657220697320746865207a65726f206160448201526564647265737360d01b60648201526084016104e3565b61071581611153565b60006001600160e01b031982166380ac58cd60e01b1480610d5457506001600160e01b03198216635b5e139f60e01b145b806103af57506301ffc9a760e01b6001600160e01b03198316146103af565b610d7c81610e31565b6107155760405162461bcd60e51b8152602060048201526018602482015277115490cdcc8c4e881a5b9d985b1a59081d1bdad95b88125160421b60448201526064016104e3565b600081815260046020526040902080546001600160a01b0319166001600160a01b0384169081179091558190610df882610718565b6001600160a01b03167f8c5be1e5ebec7d5bd14f71427d1e84f3dd0314c0f7b2291e5b200ac8c7c3b92560405160405180910390a45050565b6000908152600260205260409020546001600160a01b0316151590565b610e5782610e31565b610eb85760405162461bcd60e51b815260206004820152602c60248201527f4552433732314d657461646174613a2055524920736574206f66206e6f6e657860448201526b34b9ba32b73a103a37b5b2b760a11b60648201526084016104e3565b6000828152600960209081526040909120825161058492840190611728565b600080610ee383610718565b9050806001600160a01b0316846001600160a01b03161480610f2a57506001600160a01b0380821660009081526005602090815260408083209388168352929052205460ff165b806106745750836001600160a01b0316610f4384610447565b6001600160a01b031614949350505050565b826001600160a01b0316610f6882610718565b6001600160a01b031614610f8e5760405162461bcd60e51b81526004016104e390611d83565b6001600160a01b038216610ff05760405162461bcd60e51b8152602060048201526024808201527f4552433732313a207472616e7366657220746f20746865207a65726f206164646044820152637265737360e01b60648201526084016104e3565b826001600160a01b031661100382610718565b6001600160a01b0316146110295760405162461bcd60e51b81526004016104e390611d83565b600081815260046020908152604080832080546001600160a01b03199081169091556001600160a01b0387811680865260038552838620805460001901905590871680865283862080546001019055868652600290945282852080549092168417909155905184937fddf252ad1be2c89b69c2b068fc378daa952ba7f163c4a11628f55a4df523b3ef91a4505050565b6007546001600160a01b031633146108105760405162461bcd60e51b815260206004820181905260248201527f4f776e61626c653a2063616c6c6572206973206e6f7420746865206f776e657260448201526064016104e3565b61111c816114c0565b6000818152600660205260409020805461113590611c9e565b159050610715576000818152600660205260408120610715916117ac565b600780546001600160a01b038381166001600160a01b0319831681179093556040519116919082907f8be0079c531659141344cd1fd0a4f28419497f9722a3daafe3b4186f6b6457e090600090a35050565b6001600160a01b0382166111fb5760405162461bcd60e51b815260206004820181905260248201527f4552433732313a206d696e7420746f20746865207a65726f206164647265737360448201526064016104e3565b61120481610e31565b156112515760405162461bcd60e51b815260206004820152601c60248201527f4552433732313a20746f6b656e20616c7265616479206d696e7465640000000060448201526064016104e3565b61125a81610e31565b156112a75760405162461bcd60e51b815260206004820152601c60248201527f4552433732313a20746f6b656e20616c7265616479206d696e7465640000000060448201526064016104e3565b6001600160a01b038216600081815260036020908152604080832080546001019055848352600290915280822080546001600160a01b0319168417905551839291907fddf252ad1be2c89b69c2b068fc378daa952ba7f163c4a11628f55a4df523b3ef908290a45050565b816001600160a01b0316836001600160a01b031614156113745760405162461bcd60e51b815260206004820152601960248201527f4552433732313a20617070726f766520746f2063616c6c65720000000000000060448201526064016104e3565b6001600160a01b03838116600081815260056020908152604080832094871680845294825291829020805460ff191686151590811790915591519182527f17307eab39ab6107e8899845ad3d59bd9653f200f220920489ca2b5937696c31910160405180910390a3505050565b6113ec848484610f55565b6113f884848484611555565b610a705760405162461bcd60e51b81526004016104e390611dc8565b6060600a80546103c490611c9e565b6060600061143083611650565b600101905060008167ffffffffffffffff811115611450576114506118fb565b6040519080825280601f01601f19166020018201604052801561147a576020820181803683370190505b5090508181016020015b600019016f181899199a1a9b1b9c1cb0b131b232b360811b600a86061a8153600a85049450846114b3576114b8565b611484565b509392505050565b60006114cb82610718565b90506114d682610718565b600083815260046020908152604080832080546001600160a01b03199081169091556001600160a01b0385168085526003845282852080546000190190558785526002909352818420805490911690555192935084927fddf252ad1be2c89b69c2b068fc378daa952ba7f163c4a11628f55a4df523b3ef908390a45050565b60006001600160a01b0384163b1561164857604051630a85bd0160e11b81526001600160a01b0385169063150b7a0290611599903390899088908890600401611e1a565b6020604051808303816000875af19250505080156115d4575060408051601f3d908101601f191682019092526115d191810190611e57565b60015b61162e573d808015611602576040519150601f19603f3d011682016040523d82523d6000602084013e611607565b606091505b5080516116265760405162461bcd60e51b81526004016104e390611dc8565b805181602001fd5b6001600160e01b031916630a85bd0160e11b149050610674565b506001610674565b60008072184f03e93ff9f4daa797ed6e38ed64bf6a1f0160401b831061168f5772184f03e93ff9f4daa797ed6e38ed64bf6a1f0160401b830492506040015b6d04ee2d6d415b85acef810000000083106116bb576d04ee2d6d415b85acef8100000000830492506020015b662386f26fc1000083106116d957662386f26fc10000830492506010015b6305f5e10083106116f1576305f5e100830492506008015b612710831061170557612710830492506004015b60648310611717576064830492506002015b600a83106103af5760010192915050565b82805461173490611c9e565b90600052602060002090601f016020900481019282611756576000855561179c565b82601f1061176f57805160ff191683800117855561179c565b8280016001018555821561179c579182015b8281111561179c578251825591602001919060010190611781565b506117a89291506117e2565b5090565b5080546117b890611c9e565b6000825580601f106117c8575050565b601f01602090049060005260206000209081019061071591905b5b808211156117a857600081556001016117e3565b6001600160e01b03198116811461071557600080fd5b60006020828403121561181f57600080fd5b813561182a816117f7565b9392505050565b60005b8381101561184c578181015183820152602001611834565b83811115610a705750506000910152565b60008151808452611875816020860160208601611831565b601f01601f19169290920160200192915050565b60208152600061182a602083018461185d565b6000602082840312156118ae57600080fd5b5035919050565b80356001600160a01b03811681146118cc57600080fd5b919050565b600080604083850312156118e457600080fd5b6118ed836118b5565b946020939093013593505050565b634e487b7160e01b600052604160045260246000fd5b600067ffffffffffffffff8084111561192c5761192c6118fb565b604051601f8501601f19908116603f01168101908282118183101715611954576119546118fb565b8160405280935085815286868601111561196d57600080fd5b858560208301376000602087830101525050509392505050565b600082601f83011261199857600080fd5b61182a83833560208501611911565b600080600080608085870312156119bd57600080fd5b84359350602085013567ffffffffffffffff808211156119dc57600080fd5b6119e888838901611987565b945060408701359150808211156119fe57600080fd5b611a0a88838901611987565b93506060870135915080821115611a2057600080fd5b50611a2d87828801611987565b91505092959194509250565b602081528151602082015260018060a01b0360208301511660408201526000604083015160a06060840152611a7160c084018261185d565b90506060840151601f1980858403016080860152611a8f838361185d565b925060808601519150808584030160a0860152506108a3828261185d565b600080600060608486031215611ac257600080fd5b611acb846118b5565b9250611ad9602085016118b5565b9150604084013590509250925092565b600060208284031215611afb57600080fd5b813567ffffffffffffffff811115611b1257600080fd5b61067484828501611987565b600060208284031215611b3057600080fd5b61182a826118b5565b60008060008060808587031215611b4f57600080fd5b611b58856118b5565b9350602085013567ffffffffffffffff808211156119dc57600080fd5b60008060408385031215611b8857600080fd5b611b91836118b5565b915060208301358015158114611ba657600080fd5b809150509250929050565b848152608060208201526000611bca608083018661185d565b8281036040840152611bdc818661185d565b90508281036060840152611bf0818561185d565b979650505050505050565b60008060008060808587031215611c1157600080fd5b611c1a856118b5565b9350611c28602086016118b5565b925060408501359150606085013567ffffffffffffffff811115611c4b57600080fd5b8501601f81018713611c5c57600080fd5b611a2d87823560208401611911565b60008060408385031215611c7e57600080fd5b611c87836118b5565b9150611c95602084016118b5565b90509250929050565b600181811c90821680611cb257607f821691505b60208210811415611cd357634e487b7160e01b600052602260045260246000fd5b50919050565b60208082526014908201527310985919d948191bd95cc81b9bdd08195e1a5cdd60621b604082015260600190565b6020808252602d908201527f4552433732313a2063616c6c6572206973206e6f7420746f6b656e206f776e6560408201526c1c881bdc88185c1c1c9bdd9959609a1b606082015260800190565b60008351611d66818460208801611831565b835190830190611d7a818360208801611831565b01949350505050565b60208082526025908201527f4552433732313a207472616e736665722066726f6d20696e636f72726563742060408201526437bbb732b960d91b606082015260800190565b60208082526032908201527f4552433732313a207472616e7366657220746f206e6f6e20455243373231526560408201527131b2b4bb32b91034b6b83632b6b2b73a32b960711b606082015260800190565b6001600160a01b0385811682528416602082015260408101839052608060608201819052600090611e4d9083018461185d565b9695505050505050565b600060208284031215611e6957600080fd5b815161182a816117f756fea2646970667358221220ffe52fd436bfdb88047166408de64a8f8fa85e1a4e69922c954fddb65cd8aebd64736f6c634300080c0033",
  "linkReferences": {},
  "deployedLinkReferences": {}
}