{
  "contractName": "PussNFT",
  "abi": [
    {
      "inputs": [],
      "stateMutability": "nonpayable",
      "type": "constructor"
    },
    {
      "anonymous": false,
      "inputs": [
        {
          "indexed": true,
          "internalType": "address",
          "name": "owner",
          "type": "address"
        },
        {
          "indexed": true,
          "internalType": "address",
          "name": "approved",
          "type": "address"
        },
        {
          "indexed": true,
          "internalType": "uint256",
          "name": "tokenId",
          "type": "uint256"
        }
      ],
      "name": "Approval",
      "type": "event"
    },
    {
      "anonymous": false,
      "inputs": [
        {
          "indexed": true,
          "internalType": "address",
          "name": "owner",
          "type": "address"
        },
        {
          "indexed": true,
          "internalType": "address",
          "name": "operator",
          "type": "address"
        },
        {
          "indexed": false,
          "internalType": "bool",
          "name": "approved",
          "type": "bool"
        }
      ],
      "name": "ApprovalForAll",
      "type": "event"
    },
    {
      "anonymous": false,
      "inputs": [
        {
          "indexed": true,
          "internalType": "address",
          "name": "from",
          "type": "address"
        },
        {
          "indexed": true,
          "internalType": "address",
          "name": "to",
          "type": "address"
        },
        {
          "indexed": true,
          "internalType": "uint256",
          "name": "tokenId",
          "type": "uint256"
        }
      ],
      "name": "Transfer",
      "type": "event"
    },
    {
      "inputs": [],
      "name": "admin",
      "outputs": [
        {
          "internalType": "address",
          "name": "",
          "type": "address"
        }
      ],
      "stateMutability": "view",
      "type": "function",
      "constant": true
    },
    {
      "inputs": [
        {
          "internalType": "address",
          "name": "to",
          "type": "address"
        },
        {
          "internalType": "uint256",
          "name": "tokenId",
          "type": "uint256"
        }
      ],
      "name": "approve",
      "outputs": [],
      "stateMutability": "nonpayable",
      "type": "function"
    },
    {
      "inputs": [
        {
          "internalType": "address",
          "name": "owner",
          "type": "address"
        }
      ],
      "name": "balanceOf",
      "outputs": [
        {
          "internalType": "uint256",
          "name": "",
          "type": "uint256"
        }
      ],
      "stateMutability": "view",
      "type": "function",
      "constant": true
    },
    {
      "inputs": [
        {
          "internalType": "uint256",
          "name": "tokenId",
          "type": "uint256"
        }
      ],
      "name": "getApproved",
      "outputs": [
        {
          "internalType": "address",
          "name": "",
          "type": "address"
        }
      ],
      "stateMutability": "view",
      "type": "function",
      "constant": true
    },
    {
      "inputs": [
        {
          "internalType": "uint256",
          "name": "",
          "type": "uint256"
        }
      ],
      "name": "id_to_number",
      "outputs": [
        {
          "internalType": "uint8",
          "name": "number",
          "type": "uint8"
        },
        {
          "internalType": "string",
          "name": "title",
          "type": "string"
        }
      ],
      "stateMutability": "view",
      "type": "function",
      "constant": true
    },
    {
      "inputs": [
        {
          "internalType": "address",
          "name": "owner",
          "type": "address"
        },
        {
          "internalType": "address",
          "name": "operator",
          "type": "address"
        }
      ],
      "name": "isApprovedForAll",
      "outputs": [
        {
          "internalType": "bool",
          "name": "",
          "type": "bool"
        }
      ],
      "stateMutability": "view",
      "type": "function",
      "constant": true
    },
    {
      "inputs": [],
      "name": "name",
      "outputs": [
        {
          "internalType": "string",
          "name": "",
          "type": "string"
        }
      ],
      "stateMutability": "view",
      "type": "function",
      "constant": true
    },
    {
      "inputs": [
        {
          "internalType": "uint256",
          "name": "tokenId",
          "type": "uint256"
        }
      ],
      "name": "ownerOf",
      "outputs": [
        {
          "internalType": "address",
          "name": "",
          "type": "address"
        }
      ],
      "stateMutability": "view",
      "type": "function",
      "constant": true
    },
    {
      "inputs": [
        {
          "internalType": "address",
          "name": "from",
          "type": "address"
        },
        {
          "internalType": "address",
          "name": "to",
          "type": "address"
        },
        {
          "internalType": "uint256",
          "name": "tokenId",
          "type": "uint256"
        }
      ],
      "name": "safeTransferFrom",
      "outputs": [],
      "stateMutability": "nonpayable",
      "type": "function"
    },
    {
      "inputs": [
        {
          "internalType": "address",
          "name": "from",
          "type": "address"
        },
        {
          "internalType": "address",
          "name": "to",
          "type": "address"
        },
        {
          "internalType": "uint256",
          "name": "tokenId",
          "type": "uint256"
        },
        {
          "internalType": "bytes",
          "name": "data",
          "type": "bytes"
        }
      ],
      "name": "safeTransferFrom",
      "outputs": [],
      "stateMutability": "nonpayable",
      "type": "function"
    },
    {
      "inputs": [
        {
          "internalType": "address",
          "name": "operator",
          "type": "address"
        },
        {
          "internalType": "bool",
          "name": "approved",
          "type": "bool"
        }
      ],
      "name": "setApprovalForAll",
      "outputs": [],
      "stateMutability": "nonpayable",
      "type": "function"
    },
    {
      "inputs": [
        {
          "internalType": "bytes4",
          "name": "interfaceId",
          "type": "bytes4"
        }
      ],
      "name": "supportsInterface",
      "outputs": [
        {
          "internalType": "bool",
          "name": "",
          "type": "bool"
        }
      ],
      "stateMutability": "view",
      "type": "function",
      "constant": true
    },
    {
      "inputs": [],
      "name": "symbol",
      "outputs": [
        {
          "internalType": "string",
          "name": "",
          "type": "string"
        }
      ],
      "stateMutability": "view",
      "type": "function",
      "constant": true
    },
    {
      "inputs": [
        {
          "internalType": "uint256",
          "name": "tokenId",
          "type": "uint256"
        }
      ],
      "name": "tokenURI",
      "outputs": [
        {
          "internalType": "string",
          "name": "",
          "type": "string"
        }
      ],
      "stateMutability": "view",
      "type": "function",
      "constant": true
    },
    {
      "inputs": [
        {
          "internalType": "address",
          "name": "from",
          "type": "address"
        },
        {
          "internalType": "address",
          "name": "to",
          "type": "address"
        },
        {
          "internalType": "uint256",
          "name": "tokenId",
          "type": "uint256"
        }
      ],
      "name": "transferFrom",
      "outputs": [],
      "stateMutability": "nonpayable",
      "type": "function"
    },
    {
      "inputs": [],
      "name": "contractURI",
      "outputs": [
        {
          "internalType": "string",
          "name": "",
          "type": "string"
        }
      ],
      "stateMutability": "pure",
      "type": "function",
      "constant": true
    },
    {
      "inputs": [
        {
          "internalType": "uint8",
          "name": "number",
          "type": "uint8"
        }
      ],
      "name": "claim",
      "outputs": [],
      "stateMutability": "nonpayable",
      "type": "function"
    }
  ],
  "bytecode": "0x60806040523480156200001157600080fd5b5060405180604001604052806007815260200166141d5cdcd3919560ca1b81525060405180604001604052806007815260200166141554d4d3919560ca1b81525081600090805190602001906200006a92919062000501565b5080516200008090600190602084019062000501565b5050600680546001600160a01b03191633178155604080518082019091529081526554696e6f636160d01b6020820152620000bf9150600090620000f8565b620000f26001604051806040016040528060088152602001674672616a6f6c697360c01b815250620000f860201b60201c565b62000692565b60408051808201825260ff8481168083526020808401868152600092835260078252949091208351815460ff19169316929092178255925180519293919262000148926001850192019062000501565b50506006546200016691506001600160a01b031660ff84166200016a565b5050565b620001668282604051806020016040528060008152506200018c60201b60201c565b62000198838362000208565b620001a7600084848462000399565b620002035760405162461bcd60e51b81526020600482015260326024820152600080516020620019c083398151915260448201527131b2b4bb32b91034b6b83632b6b2b73a32b960711b60648201526084015b60405180910390fd5b505050565b6001600160a01b038216620002605760405162461bcd60e51b815260206004820181905260248201527f4552433732313a206d696e7420746f20746865207a65726f20616464726573736044820152606401620001fa565b6000818152600260205260409020546001600160a01b031615620002c75760405162461bcd60e51b815260206004820152601c60248201527f4552433732313a20746f6b656e20616c7265616479206d696e746564000000006044820152606401620001fa565b6000818152600260205260409020546001600160a01b0316156200032e5760405162461bcd60e51b815260206004820152601c60248201527f4552433732313a20746f6b656e20616c7265616479206d696e746564000000006044820152606401620001fa565b6001600160a01b038216600081815260036020908152604080832080546001019055848352600290915280822080546001600160a01b0319168417905551839291907fddf252ad1be2c89b69c2b068fc378daa952ba7f163c4a11628f55a4df523b3ef908290a45050565b6000620003ba846001600160a01b0316620004f260201b620007ae1760201c565b15620004e657604051630a85bd0160e11b81526001600160a01b0385169063150b7a0290620003f4903390899088908890600401620005a7565b6020604051808303816000875af192505050801562000432575060408051601f3d908101601f191682019092526200042f9181019062000622565b60015b620004cb573d80801562000463576040519150601f19603f3d011682016040523d82523d6000602084013e62000468565b606091505b508051620004c35760405162461bcd60e51b81526020600482015260326024820152600080516020620019c083398151915260448201527131b2b4bb32b91034b6b83632b6b2b73a32b960711b6064820152608401620001fa565b805181602001fd5b6001600160e01b031916630a85bd0160e11b149050620004ea565b5060015b949350505050565b6001600160a01b03163b151590565b8280546200050f9062000655565b90600052602060002090601f0160209004810192826200053357600085556200057e565b82601f106200054e57805160ff19168380011785556200057e565b828001600101855582156200057e579182015b828111156200057e57825182559160200191906001019062000561565b506200058c92915062000590565b5090565b5b808211156200058c576000815560010162000591565b600060018060a01b038087168352602081871681850152856040850152608060608501528451915081608085015260005b82811015620005f65785810182015185820160a001528101620005d8565b828111156200060957600060a084870101525b5050601f01601f19169190910160a00195945050505050565b6000602082840312156200063557600080fd5b81516001600160e01b0319811681146200064e57600080fd5b9392505050565b600181811c908216806200066a57607f821691505b602082108114156200068c57634e487b7160e01b600052602260045260246000fd5b50919050565b61131e80620006a26000396000f3fe608060405234801561001057600080fd5b506004361061010b5760003560e01c806370a08231116100a2578063b88d4fde11610071578063b88d4fde14610236578063c87b56dd14610249578063e8a3d4851461025c578063e985e9c514610264578063f851a440146102a057600080fd5b806370a08231146101e757806395d4063f1461020857806395d89b411461021b578063a22cb4651461022357600080fd5b806323b872dd116100de57806323b872dd1461018d57806342842e0e146101a057806345eed040146101b35780636352211e146101d457600080fd5b806301ffc9a71461011057806306fdde0314610138578063081812fc1461014d578063095ea7b314610178575b600080fd5b61012361011e366004610e18565b6102b3565b60405190151581526020015b60405180910390f35b610140610305565b60405161012f9190610e8d565b61016061015b366004610ea0565b610397565b6040516001600160a01b03909116815260200161012f565b61018b610186366004610ed5565b6103be565b005b61018b61019b366004610eff565b6104d9565b61018b6101ae366004610eff565b61050a565b6101c66101c1366004610ea0565b610525565b60405161012f929190610f3b565b6101606101e2366004610ea0565b6105ce565b6101fa6101f5366004610f57565b61062e565b60405190815260200161012f565b61018b610216366004610f72565b6106b4565b6101406106d1565b61018b610231366004610f95565b6106e0565b61018b610244366004610fe7565b6106ef565b610140610257366004610ea0565b610727565b61014061078e565b6101236102723660046110c3565b6001600160a01b03918216600090815260056020908152604080832093909416825291909152205460ff1690565b600654610160906001600160a01b031681565b60006001600160e01b031982166380ac58cd60e01b14806102e457506001600160e01b03198216635b5e139f60e01b145b806102ff57506301ffc9a760e01b6001600160e01b03198316145b92915050565b606060008054610314906110f6565b80601f0160208091040260200160405190810160405280929190818152602001828054610340906110f6565b801561038d5780601f106103625761010080835404028352916020019161038d565b820191906000526020600020905b81548152906001019060200180831161037057829003601f168201915b5050505050905090565b60006103a2826107bd565b506000908152600460205260409020546001600160a01b031690565b60006103c9826105ce565b9050806001600160a01b0316836001600160a01b0316141561043c5760405162461bcd60e51b815260206004820152602160248201527f4552433732313a20617070726f76616c20746f2063757272656e74206f776e656044820152603960f91b60648201526084015b60405180910390fd5b336001600160a01b038216148061045857506104588133610272565b6104ca5760405162461bcd60e51b815260206004820152603d60248201527f4552433732313a20617070726f76652063616c6c6572206973206e6f7420746f60448201527f6b656e206f776e6572206f7220617070726f76656420666f7220616c6c0000006064820152608401610433565b6104d4838361081c565b505050565b6104e3338261088a565b6104ff5760405162461bcd60e51b815260040161043390611131565b6104d4838383610909565b6104d4838383604051806020016040528060008152506106ef565b6007602052600090815260409020805460018201805460ff909216929161054b906110f6565b80601f0160208091040260200160405190810160405280929190818152602001828054610577906110f6565b80156105c45780601f10610599576101008083540402835291602001916105c4565b820191906000526020600020905b8154815290600101906020018083116105a757829003601f168201915b5050505050905082565b6000818152600260205260408120546001600160a01b0316806102ff5760405162461bcd60e51b8152602060048201526018602482015277115490cdcc8c4e881a5b9d985b1a59081d1bdad95b88125160421b6044820152606401610433565b60006001600160a01b0382166106985760405162461bcd60e51b815260206004820152602960248201527f4552433732313a2061646472657373207a65726f206973206e6f7420612076616044820152683634b21037bbb732b960b91b6064820152608401610433565b506001600160a01b031660009081526003602052604090205490565b6006546106ce906001600160a01b03163360ff8416610909565b50565b606060018054610314906110f6565b6106eb338383610a6d565b5050565b6106f9338361088a565b6107155760405162461bcd60e51b815260040161043390611131565b61072184848484610b3c565b50505050565b6060610732826107bd565b600061073c610b6f565b9050600081511161075c5760405180602001604052806000815250610787565b8061076684610b8f565b60405160200161077792919061117e565b6040516020818303038152906040525b9392505050565b60606040518060600160405280602681526020016112c360269139905090565b6001600160a01b03163b151590565b6000818152600260205260409020546001600160a01b03166106ce5760405162461bcd60e51b8152602060048201526018602482015277115490cdcc8c4e881a5b9d985b1a59081d1bdad95b88125160421b6044820152606401610433565b600081815260046020526040902080546001600160a01b0319166001600160a01b0384169081179091558190610851826105ce565b6001600160a01b03167f8c5be1e5ebec7d5bd14f71427d1e84f3dd0314c0f7b2291e5b200ac8c7c3b92560405160405180910390a45050565b600080610896836105ce565b9050806001600160a01b0316846001600160a01b031614806108dd57506001600160a01b0380821660009081526005602090815260408083209388168352929052205460ff165b806109015750836001600160a01b03166108f684610397565b6001600160a01b0316145b949350505050565b826001600160a01b031661091c826105ce565b6001600160a01b0316146109425760405162461bcd60e51b8152600401610433906111ad565b6001600160a01b0382166109a45760405162461bcd60e51b8152602060048201526024808201527f4552433732313a207472616e7366657220746f20746865207a65726f206164646044820152637265737360e01b6064820152608401610433565b826001600160a01b03166109b7826105ce565b6001600160a01b0316146109dd5760405162461bcd60e51b8152600401610433906111ad565b600081815260046020908152604080832080546001600160a01b03199081169091556001600160a01b0387811680865260038552838620805460001901905590871680865283862080546001019055868652600290945282852080549092168417909155905184937fddf252ad1be2c89b69c2b068fc378daa952ba7f163c4a11628f55a4df523b3ef91a4505050565b816001600160a01b0316836001600160a01b03161415610acf5760405162461bcd60e51b815260206004820152601960248201527f4552433732313a20617070726f766520746f2063616c6c6572000000000000006044820152606401610433565b6001600160a01b03838116600081815260056020908152604080832094871680845294825291829020805460ff191686151590811790915591519182527f17307eab39ab6107e8899845ad3d59bd9653f200f220920489ca2b5937696c31910160405180910390a3505050565b610b47848484610909565b610b5384848484610c2c565b6107215760405162461bcd60e51b8152600401610433906111f2565b606060405180606001604052806024815260200161129f60249139905090565b60606000610b9c83610d2a565b600101905060008167ffffffffffffffff811115610bbc57610bbc610fd1565b6040519080825280601f01601f191660200182016040528015610be6576020820181803683370190505b5090508181016020015b600019016f181899199a1a9b1b9c1cb0b131b232b360811b600a86061a8153600a8504945084610c1f57610c24565b610bf0565b509392505050565b60006001600160a01b0384163b15610d1f57604051630a85bd0160e11b81526001600160a01b0385169063150b7a0290610c70903390899088908890600401611244565b6020604051808303816000875af1925050508015610cab575060408051601f3d908101601f19168201909252610ca891810190611281565b60015b610d05573d808015610cd9576040519150601f19603f3d011682016040523d82523d6000602084013e610cde565b606091505b508051610cfd5760405162461bcd60e51b8152600401610433906111f2565b805181602001fd5b6001600160e01b031916630a85bd0160e11b149050610901565b506001949350505050565b60008072184f03e93ff9f4daa797ed6e38ed64bf6a1f0160401b8310610d695772184f03e93ff9f4daa797ed6e38ed64bf6a1f0160401b830492506040015b6d04ee2d6d415b85acef81000000008310610d95576d04ee2d6d415b85acef8100000000830492506020015b662386f26fc100008310610db357662386f26fc10000830492506010015b6305f5e1008310610dcb576305f5e100830492506008015b6127108310610ddf57612710830492506004015b60648310610df1576064830492506002015b600a83106102ff5760010192915050565b6001600160e01b0319811681146106ce57600080fd5b600060208284031215610e2a57600080fd5b813561078781610e02565b60005b83811015610e50578181015183820152602001610e38565b838111156107215750506000910152565b60008151808452610e79816020860160208601610e35565b601f01601f19169290920160200192915050565b6020815260006107876020830184610e61565b600060208284031215610eb257600080fd5b5035919050565b80356001600160a01b0381168114610ed057600080fd5b919050565b60008060408385031215610ee857600080fd5b610ef183610eb9565b946020939093013593505050565b600080600060608486031215610f1457600080fd5b610f1d84610eb9565b9250610f2b60208501610eb9565b9150604084013590509250925092565b60ff831681526040602082015260006109016040830184610e61565b600060208284031215610f6957600080fd5b61078782610eb9565b600060208284031215610f8457600080fd5b813560ff8116811461078757600080fd5b60008060408385031215610fa857600080fd5b610fb183610eb9565b915060208301358015158114610fc657600080fd5b809150509250929050565b634e487b7160e01b600052604160045260246000fd5b60008060008060808587031215610ffd57600080fd5b61100685610eb9565b935061101460208601610eb9565b925060408501359150606085013567ffffffffffffffff8082111561103857600080fd5b818701915087601f83011261104c57600080fd5b81358181111561105e5761105e610fd1565b604051601f8201601f19908116603f0116810190838211818310171561108657611086610fd1565b816040528281528a602084870101111561109f57600080fd5b82602086016020830137600060208483010152809550505050505092959194509250565b600080604083850312156110d657600080fd5b6110df83610eb9565b91506110ed60208401610eb9565b90509250929050565b600181811c9082168061110a57607f821691505b6020821081141561112b57634e487b7160e01b600052602260045260246000fd5b50919050565b6020808252602d908201527f4552433732313a2063616c6c6572206973206e6f7420746f6b656e206f776e6560408201526c1c881bdc88185c1c1c9bdd9959609a1b606082015260800190565b60008351611190818460208801610e35565b8351908301906111a4818360208801610e35565b01949350505050565b60208082526025908201527f4552433732313a207472616e736665722066726f6d20696e636f72726563742060408201526437bbb732b960d91b606082015260800190565b60208082526032908201527f4552433732313a207472616e7366657220746f206e6f6e20455243373231526560408201527131b2b4bb32b91034b6b83632b6b2b73a32b960711b606082015260800190565b6001600160a01b038581168252841660208201526040810183905260806060820181905260009061127790830184610e61565b9695505050505050565b60006020828403121561129357600080fd5b815161078781610e0256fe68747470733a2f2f61637269616e66742e75732e616c6472796e2e696f2f746f6b656e2f68747470733a2f2f61637269616e66742e75732e616c6472796e2e696f2f636f6e7472616374a26469706673582212204bbf28bb87a989f3639acb3f9411ba49d1b1dabe0a12127047a64e382ce8097764736f6c634300080b00334552433732313a207472616e7366657220746f206e6f6e204552433732315265",
  "immutableReferences": {},
  "source": "// SPDX-License-Identifier: MIT\npragma solidity 0.8.11;\n\nimport \"@openzeppelin/contracts/token/ERC721/ERC721.sol\";\n\ncontract PussNFT is ERC721 {\n\n\taddress public admin;\n\n\tstruct Metadata {\n\t\tuint8 number;\n\t\tstring title;\n\t}\n\n\tmapping(uint256 => Metadata) public id_to_number;\n\n\tconstructor() ERC721(\"PussNFT\",\"PUSSNFT\"){\n\t\tadmin = msg.sender;\n\n\t\tmint(0,\"Tinoca\");\n\t\tmint(1,\"Frajolis\");\n\t}\n\n\tfunction _baseURI() override internal view virtual returns (string memory) {\n\t\treturn \"https://acrianft.us.aldryn.io/token/\";\n\t}\n\n\tfunction contractURI() public pure returns (string memory) {\n\t\treturn \"https://acrianft.us.aldryn.io/contract\";\n\t}\n\n\tfunction mint(uint8 number, string memory title) internal {\n\t\tid_to_number[number] = Metadata(number,title);\n\t\t_safeMint(admin, number);\n\t}\n\t \n\tfunction claim(uint8 number) external {\n\t\t_transfer(admin, msg.sender, number);\n\t}\n}",
  "sourcePath": "C:\\github\\gabyhud\\trabalho-final\\this_nftProject\\contracts\\PussNFT.sol",
  "compiler": {
    "name": "solc",
    "version": "0.8.11+commit.d7f03943.Emscripten.clang"
  },
  "schemaVersion": "3.4.14",
  "updatedAt": "2023-05-28T21:36:05.736Z",
  "networkType": "ethereum",
  "devdoc": {
    "kind": "dev",
    "methods": {
      "approve(address,uint256)": {
        "details": "See {IERC721-approve}."
      },
      "balanceOf(address)": {
        "details": "See {IERC721-balanceOf}."
      },
      "getApproved(uint256)": {
        "details": "See {IERC721-getApproved}."
      },
      "isApprovedForAll(address,address)": {
        "details": "See {IERC721-isApprovedForAll}."
      },
      "name()": {
        "details": "See {IERC721Metadata-name}."
      },
      "ownerOf(uint256)": {
        "details": "See {IERC721-ownerOf}."
      },
      "safeTransferFrom(address,address,uint256)": {
        "details": "See {IERC721-safeTransferFrom}."
      },
      "safeTransferFrom(address,address,uint256,bytes)": {
        "details": "See {IERC721-safeTransferFrom}."
      },
      "setApprovalForAll(address,bool)": {
        "details": "See {IERC721-setApprovalForAll}."
      },
      "supportsInterface(bytes4)": {
        "details": "See {IERC165-supportsInterface}."
      },
      "symbol()": {
        "details": "See {IERC721Metadata-symbol}."
      },
      "tokenURI(uint256)": {
        "details": "See {IERC721Metadata-tokenURI}."
      },
      "transferFrom(address,address,uint256)": {
        "details": "See {IERC721-transferFrom}."
      }
    },
    "version": 1
  },
  "userdoc": {
    "kind": "user",
    "methods": {},
    "version": 1
  }
}